{
  "contractName": "product1",
  "abi": [
    {
      "inputs": [
        {
          "internalType": "uint256",
          "name": "",
          "type": "uint256"
        }
      ],
      "name": "productItems",
      "outputs": [
        {
          "internalType": "uint256",
          "name": "productId",
          "type": "uint256"
        },
        {
          "internalType": "string",
          "name": "productSN",
          "type": "string"
        },
        {
          "internalType": "string",
          "name": "productName",
          "type": "string"
        },
        {
          "internalType": "string",
          "name": "productBrand",
          "type": "string"
        },
        {
          "internalType": "uint256",
          "name": "productPrice",
          "type": "uint256"
        },
        {
          "internalType": "string",
          "name": "productStatus",
          "type": "string"
        }
      ],
      "stateMutability": "view",
      "type": "function"
    },
    {
      "inputs": [
        {
          "internalType": "string",
          "name": "",
          "type": "string"
        }
      ],
      "name": "productMap",
      "outputs": [
        {
          "internalType": "uint256",
          "name": "",
          "type": "uint256"
        }
      ],
      "stateMutability": "view",
      "type": "function"
    },
    {
      "inputs": [
        {
          "internalType": "string",
          "name": "",
          "type": "string"
        }
      ],
      "name": "productsForSale",
      "outputs": [
        {
          "internalType": "string",
          "name": "",
          "type": "string"
        }
      ],
      "stateMutability": "view",
      "type": "function"
    },
    {
      "inputs": [
        {
          "internalType": "string",
          "name": "",
          "type": "string"
        }
      ],
      "name": "productsManufactured",
      "outputs": [
        {
          "internalType": "string",
          "name": "",
          "type": "string"
        }
      ],
      "stateMutability": "view",
      "type": "function"
    },
    {
      "inputs": [
        {
          "internalType": "string",
          "name": "",
          "type": "string"
        }
      ],
      "name": "productsSold",
      "outputs": [
        {
          "internalType": "string",
          "name": "",
          "type": "string"
        }
      ],
      "stateMutability": "view",
      "type": "function"
    },
    {
      "inputs": [
        {
          "internalType": "string",
          "name": "",
          "type": "string"
        },
        {
          "internalType": "uint256",
          "name": "",
          "type": "uint256"
        }
      ],
      "name": "productsWithConsumer",
      "outputs": [
        {
          "internalType": "string",
          "name": "",
          "type": "string"
        }
      ],
      "stateMutability": "view",
      "type": "function"
    },
    {
      "inputs": [
        {
          "internalType": "string",
          "name": "",
          "type": "string"
        },
        {
          "internalType": "uint256",
          "name": "",
          "type": "uint256"
        }
      ],
      "name": "productsWithSeller",
      "outputs": [
        {
          "internalType": "string",
          "name": "",
          "type": "string"
        }
      ],
      "stateMutability": "view",
      "type": "function"
    },
    {
      "inputs": [
        {
          "internalType": "uint256",
          "name": "",
          "type": "uint256"
        }
      ],
      "name": "sellers",
      "outputs": [
        {
          "internalType": "uint256",
          "name": "sellerId",
          "type": "uint256"
        },
        {
          "internalType": "string",
          "name": "sellerName",
          "type": "string"
        },
        {
          "internalType": "string",
          "name": "sellerBrand",
          "type": "string"
        },
        {
          "internalType": "string",
          "name": "sellerCode",
          "type": "string"
        },
        {
          "internalType": "uint256",
          "name": "sellerNum",
          "type": "uint256"
        },
        {
          "internalType": "address",
          "name": "sellerManager",
          "type": "address"
        },
        {
          "internalType": "address",
          "name": "sellerAddress",
          "type": "address"
        }
      ],
      "stateMutability": "view",
      "type": "function"
    },
    {
      "inputs": [
        {
          "internalType": "string",
          "name": "",
          "type": "string"
        },
        {
          "internalType": "uint256",
          "name": "",
          "type": "uint256"
        }
      ],
      "name": "sellersWithManufacturer",
      "outputs": [
        {
          "internalType": "string",
          "name": "",
          "type": "string"
        }
      ],
      "stateMutability": "view",
      "type": "function"
    },
    {
      "inputs": [
        {
          "internalType": "string",
          "name": "_manufacturerId",
          "type": "string"
        },
        {
          "internalType": "string",
          "name": "_sellerName",
          "type": "string"
        },
        {
          "internalType": "string",
          "name": "_sellerBrand",
          "type": "string"
        },
        {
          "internalType": "string",
          "name": "_sellerCode",
          "type": "string"
        },
        {
          "internalType": "uint256",
          "name": "_sellerNum",
          "type": "uint256"
        },
        {
          "internalType": "address",
          "name": "_sellerManager",
          "type": "address"
        },
        {
          "internalType": "address",
          "name": "_sellerAddress",
          "type": "address"
        }
      ],
      "name": "addSeller",
      "outputs": [],
      "stateMutability": "nonpayable",
      "type": "function"
    },
    {
      "inputs": [],
      "name": "viewSellers",
      "outputs": [
        {
          "internalType": "uint256[]",
          "name": "",
          "type": "uint256[]"
        },
        {
          "internalType": "string[]",
          "name": "",
          "type": "string[]"
        },
        {
          "internalType": "string[]",
          "name": "",
          "type": "string[]"
        },
        {
          "internalType": "string[]",
          "name": "",
          "type": "string[]"
        },
        {
          "internalType": "uint256[]",
          "name": "",
          "type": "uint256[]"
        },
        {
          "internalType": "address[]",
          "name": "",
          "type": "address[]"
        },
        {
          "internalType": "address[]",
          "name": "",
          "type": "address[]"
        }
      ],
      "stateMutability": "view",
      "type": "function"
    },
    {
      "inputs": [
        {
          "internalType": "string",
          "name": "_manufactuerID",
          "type": "string"
        },
        {
          "internalType": "string",
          "name": "_productName",
          "type": "string"
        },
        {
          "internalType": "string",
          "name": "_productSN",
          "type": "string"
        },
        {
          "internalType": "string",
          "name": "_productBrand",
          "type": "string"
        },
        {
          "internalType": "uint256",
          "name": "_productPrice",
          "type": "uint256"
        }
      ],
      "name": "addProduct",
      "outputs": [],
      "stateMutability": "nonpayable",
      "type": "function"
    },
    {
      "inputs": [],
      "name": "viewProductItems",
      "outputs": [
        {
          "internalType": "uint256[]",
          "name": "",
          "type": "uint256[]"
        },
        {
          "internalType": "string[]",
          "name": "",
          "type": "string[]"
        },
        {
          "internalType": "string[]",
          "name": "",
          "type": "string[]"
        },
        {
          "internalType": "string[]",
          "name": "",
          "type": "string[]"
        },
        {
          "internalType": "uint256[]",
          "name": "",
          "type": "uint256[]"
        },
        {
          "internalType": "string[]",
          "name": "",
          "type": "string[]"
        }
      ],
      "stateMutability": "view",
      "type": "function"
    },
    {
      "inputs": [
        {
          "internalType": "string",
          "name": "_productSN",
          "type": "string"
        },
        {
          "internalType": "string",
          "name": "_sellerCode",
          "type": "string"
        }
      ],
      "name": "manufacturerSellProduct",
      "outputs": [],
      "stateMutability": "nonpayable",
      "type": "function"
    },
    {
      "inputs": [
        {
          "internalType": "string",
          "name": "_productSN",
          "type": "string"
        },
        {
          "internalType": "string",
          "name": "_consumerCode",
          "type": "string"
        }
      ],
      "name": "sellerSellProduct",
      "outputs": [],
      "stateMutability": "nonpayable",
      "type": "function"
    },
    {
      "inputs": [
        {
          "internalType": "string",
          "name": "_sellerCode",
          "type": "string"
        }
      ],
      "name": "queryProductsList",
      "outputs": [
        {
          "internalType": "uint256[]",
          "name": "",
          "type": "uint256[]"
        },
        {
          "internalType": "string[]",
          "name": "",
          "type": "string[]"
        },
        {
          "internalType": "string[]",
          "name": "",
          "type": "string[]"
        },
        {
          "internalType": "string[]",
          "name": "",
          "type": "string[]"
        },
        {
          "internalType": "uint256[]",
          "name": "",
          "type": "uint256[]"
        },
        {
          "internalType": "string[]",
          "name": "",
          "type": "string[]"
        }
      ],
      "stateMutability": "view",
      "type": "function"
    },
    {
      "inputs": [
        {
          "internalType": "string",
          "name": "_manufacturerCode",
          "type": "string"
        }
      ],
      "name": "querySellersList",
      "outputs": [
        {
          "internalType": "uint256[]",
          "name": "",
          "type": "uint256[]"
        },
        {
          "internalType": "string[]",
          "name": "",
          "type": "string[]"
        },
        {
          "internalType": "string[]",
          "name": "",
          "type": "string[]"
        },
        {
          "internalType": "string[]",
          "name": "",
          "type": "string[]"
        },
        {
          "internalType": "uint256[]",
          "name": "",
          "type": "uint256[]"
        },
        {
          "internalType": "address[]",
          "name": "",
          "type": "address[]"
        },
        {
          "internalType": "address[]",
          "name": "",
          "type": "address[]"
        }
      ],
      "stateMutability": "view",
      "type": "function"
    },
    {
      "inputs": [
        {
          "internalType": "string",
          "name": "_consumerCode",
          "type": "string"
        }
      ],
      "name": "getPurchaseHistory",
      "outputs": [
        {
          "internalType": "string[]",
          "name": "",
          "type": "string[]"
        },
        {
          "internalType": "string[]",
          "name": "",
          "type": "string[]"
        },
        {
          "internalType": "string[]",
          "name": "",
          "type": "string[]"
        }
      ],
      "stateMutability": "view",
      "type": "function"
    },
    {
      "inputs": [
        {
          "internalType": "string",
          "name": "_productSN",
          "type": "string"
        },
        {
          "internalType": "string",
          "name": "_consumerCode",
          "type": "string"
        }
      ],
      "name": "verifyProduct",
      "outputs": [
        {
          "internalType": "bool",
          "name": "",
          "type": "bool"
        }
      ],
      "stateMutability": "view",
      "type": "function"
    }
  ],
  "bytecode": "0x608060405234801561001057600080fd5b506141c9806100206000396000f3fe608060405234801561001057600080fd5b50600436106101215760003560e01c806351cb74ac116100ad5780639b030c1c116100715780639b030c1c1461037e5780639da8699b146103ae578063caaf2751146103de578063cee26ed514610413578063cf693e811461044957610121565b806351cb74ac1461028c578063531c5de5146102bc5780636570fcd6146102ec5780637ea576bf1461031c57806380e345a01461034c57610121565b806320b1a935116100f457806320b1a935146101d257806325dfbfba146101ee578063276d38971461020a57806337f0cda2146102405780633c4c7ed91461025c57610121565b8063032f95e6146101265780630ad976121461014a578063129da4e51461017f5780631836bd4b146101af575b600080fd5b61012e610465565b60405161014197969594939291906137fd565b60405180910390f35b610164600480360381019061015f91906139e6565b610a92565b60405161017696959493929190613a2f565b60405180910390f35b61019960048036038101906101949190613ae6565b611216565b6040516101a69190613b8c565b60405180910390f35b6101b76112e5565b6040516101c996959493929190613a2f565b60405180910390f35b6101ec60048036038101906101e79190613bda565b61187d565b005b61020860048036038101906102039190613cec565b611a66565b005b610224600480360381019061021f91906139e6565b611be1565b60405161023797969594939291906137fd565b60405180910390f35b61025a60048036038101906102559190613dd7565b6123ff565b005b61027660048036038101906102719190613ae6565b6126bf565b6040516102839190613b8c565b60405180910390f35b6102a660048036038101906102a19190613dd7565b61278e565b6040516102b39190613e6a565b60405180910390f35b6102d660048036038101906102d191906139e6565b612859565b6040516102e39190613e94565b60405180910390f35b610306600480360381019061030191906139e6565b612887565b6040516103139190613b8c565b60405180910390f35b61033660048036038101906103319190613ae6565b61293d565b6040516103439190613b8c565b60405180910390f35b610366600480360381019061036191906139e6565b612a0c565b60405161037593929190613eaf565b60405180910390f35b610398600480360381019061039391906139e6565b612d9a565b6040516103a59190613b8c565b60405180910390f35b6103c860048036038101906103c391906139e6565b612e50565b6040516103d59190613b8c565b60405180910390f35b6103f860048036038101906103f39190613efb565b612f06565b60405161040a96959493929190613f28565b60405180910390f35b61042d60048036038101906104289190613efb565b613162565b6040516104409796959493929190613fb4565b60405180910390f35b610463600480360381019061045e9190613dd7565b61337c565b005b60608060608060608060606000805467ffffffffffffffff81111561048d5761048c6138bb565b5b6040519080825280602002602001820160405280156104bb5781602001602082028036833780820191505090505b5090506000805467ffffffffffffffff8111156104db576104da6138bb565b5b60405190808252806020026020018201604052801561050e57816020015b60608152602001906001900390816104f95790505b5090506000805467ffffffffffffffff81111561052e5761052d6138bb565b5b60405190808252806020026020018201604052801561056157816020015b606081526020019060019003908161054c5790505b5090506000805467ffffffffffffffff811115610581576105806138bb565b5b6040519080825280602002602001820160405280156105b457816020015b606081526020019060019003908161059f5790505b5090506000805467ffffffffffffffff8111156105d4576105d36138bb565b5b6040519080825280602002602001820160405280156106025781602001602082028036833780820191505090505b5090506000805467ffffffffffffffff811115610622576106216138bb565b5b6040519080825280602002602001820160405280156106505781602001602082028036833780820191505090505b5090506000805467ffffffffffffffff8111156106705761066f6138bb565b5b60405190808252806020026020018201604052801561069e5781602001602082028036833780820191505090505b50905060005b600054811015610a6c5760026000828152602001908152602001600020600001548882815181106106d8576106d7614038565b5b60200260200101818152505060026000828152602001908152602001600020600101805461070590614096565b80601f016020809104026020016040519081016040528092919081815260200182805461073190614096565b801561077e5780601f106107535761010080835404028352916020019161077e565b820191906000526020600020905b81548152906001019060200180831161076157829003601f168201915b505050505087828151811061079657610795614038565b5b60200260200101819052506002600082815260200190815260200160002060020180546107c290614096565b80601f01602080910402602001604051908101604052809291908181526020018280546107ee90614096565b801561083b5780601f106108105761010080835404028352916020019161083b565b820191906000526020600020905b81548152906001019060200180831161081e57829003601f168201915b505050505086828151811061085357610852614038565b5b602002602001018190525060026000828152602001908152602001600020600301805461087f90614096565b80601f01602080910402602001604051908101604052809291908181526020018280546108ab90614096565b80156108f85780601f106108cd576101008083540402835291602001916108f8565b820191906000526020600020905b8154815290600101906020018083116108db57829003601f168201915b50505050508582815181106109105761090f614038565b5b6020026020010181905250600260008281526020019081526020016000206004015484828151811061094557610944614038565b5b6020026020010181815250506002600082815260200190815260200160002060050160009054906101000a900473ffffffffffffffffffffffffffffffffffffffff1683828151811061099b5761099a614038565b5b602002602001019073ffffffffffffffffffffffffffffffffffffffff16908173ffffffffffffffffffffffffffffffffffffffff16815250506002600082815260200190815260200160002060060160009054906101000a900473ffffffffffffffffffffffffffffffffffffffff16828281518110610a1f57610a1e614038565b5b602002602001019073ffffffffffffffffffffffffffffffffffffffff16908173ffffffffffffffffffffffffffffffffffffffff16815250508080610a64906140f7565b9150506106a4565b50868686868686869d509d509d509d509d509d509d505050505050505090919293949596565b6060806060806060806000600888604051610aad919061417c565b9081526020016040518091039020805480602002602001604051908101604052809291908181526020016000905b82821015610b87578382906000526020600020018054610afa90614096565b80601f0160208091040260200160405190810160405280929190818152602001828054610b2690614096565b8015610b735780601f10610b4857610100808354040283529160200191610b73565b820191906000526020600020905b815481529060010190602001808311610b5657829003601f168201915b505050505081526020019060010190610adb565b50505050905060008060015467ffffffffffffffff811115610bac57610bab6138bb565b5b604051908082528060200260200182016040528015610bda5781602001602082028036833780820191505090505b509050600060015467ffffffffffffffff811115610bfb57610bfa6138bb565b5b604051908082528060200260200182016040528015610c2e57816020015b6060815260200190600190039081610c195790505b509050600060015467ffffffffffffffff811115610c4f57610c4e6138bb565b5b604051908082528060200260200182016040528015610c8257816020015b6060815260200190600190039081610c6d5790505b509050600060015467ffffffffffffffff811115610ca357610ca26138bb565b5b604051908082528060200260200182016040528015610cd657816020015b6060815260200190600190039081610cc15790505b509050600060015467ffffffffffffffff811115610cf757610cf66138bb565b5b604051908082528060200260200182016040528015610d255781602001602082028036833780820191505090505b509050600060015467ffffffffffffffff811115610d4657610d456138bb565b5b604051908082528060200260200182016040528015610d7957816020015b6060815260200190600190039081610d645790505b50905060005b6001548110156111f25760005b89518110156111de57610e57600360008481526020019081526020016000206001018054610db990614096565b80601f0160208091040260200160405190810160405280929190818152602001828054610de590614096565b8015610e325780601f10610e0757610100808354040283529160200191610e32565b820191906000526020600020905b815481529060010190602001808311610e1557829003601f168201915b50505050508b8381518110610e4a57610e49614038565b5b602002602001015161340b565b156111cb576003600083815260200190815260200160002060000154888a81518110610e8657610e85614038565b5b602002602001018181525050600360008381526020019081526020016000206001018054610eb390614096565b80601f0160208091040260200160405190810160405280929190818152602001828054610edf90614096565b8015610f2c5780601f10610f0157610100808354040283529160200191610f2c565b820191906000526020600020905b815481529060010190602001808311610f0f57829003601f168201915b5050505050878a81518110610f4457610f43614038565b5b6020026020010181905250600360008381526020019081526020016000206002018054610f7090614096565b80601f0160208091040260200160405190810160405280929190818152602001828054610f9c90614096565b8015610fe95780601f10610fbe57610100808354040283529160200191610fe9565b820191906000526020600020905b815481529060010190602001808311610fcc57829003601f168201915b5050505050868a8151811061100157611000614038565b5b602002602001018190525060036000838152602001908152602001600020600301805461102d90614096565b80601f016020809104026020016040519081016040528092919081815260200182805461105990614096565b80156110a65780601f1061107b576101008083540402835291602001916110a6565b820191906000526020600020905b81548152906001019060200180831161108957829003601f168201915b5050505050858a815181106110be576110bd614038565b5b60200260200101819052506003600083815260200190815260200160002060040154848a815181106110f3576110f2614038565b5b60200260200101818152505060036000838152602001908152602001600020600501805461112090614096565b80601f016020809104026020016040519081016040528092919081815260200182805461114c90614096565b80156111995780601f1061116e57610100808354040283529160200191611199565b820191906000526020600020905b81548152906001019060200180831161117c57829003601f168201915b5050505050838a815181106111b1576111b0614038565b5b602002602001018190525088806111c7906140f7565b9950505b80806111d6906140f7565b915050610d8c565b5080806111ea906140f7565b915050610d7f565b508585858585859d509d509d509d509d509d50505050505050505091939550919395565b600982805160208101820180518482526020830160208501208183528095505050505050818154811061124857600080fd5b9060005260206000200160009150915050805461126490614096565b80601f016020809104026020016040519081016040528092919081815260200182805461129090614096565b80156112dd5780601f106112b2576101008083540402835291602001916112dd565b820191906000526020600020905b8154815290600101906020018083116112c057829003601f168201915b505050505081565b606080606080606080600060015467ffffffffffffffff81111561130c5761130b6138bb565b5b60405190808252806020026020018201604052801561133a5781602001602082028036833780820191505090505b509050600060015467ffffffffffffffff81111561135b5761135a6138bb565b5b60405190808252806020026020018201604052801561138e57816020015b60608152602001906001900390816113795790505b509050600060015467ffffffffffffffff8111156113af576113ae6138bb565b5b6040519080825280602002602001820160405280156113e257816020015b60608152602001906001900390816113cd5790505b509050600060015467ffffffffffffffff811115611403576114026138bb565b5b60405190808252806020026020018201604052801561143657816020015b60608152602001906001900390816114215790505b509050600060015467ffffffffffffffff811115611457576114566138bb565b5b6040519080825280602002602001820160405280156114855781602001602082028036833780820191505090505b509050600060015467ffffffffffffffff8111156114a6576114a56138bb565b5b6040519080825280602002602001820160405280156114d957816020015b60608152602001906001900390816114c45790505b50905060005b60015481101561185c57600360008281526020019081526020016000206000015487828151811061151357611512614038565b5b60200260200101818152505060036000828152602001908152602001600020600101805461154090614096565b80601f016020809104026020016040519081016040528092919081815260200182805461156c90614096565b80156115b95780601f1061158e576101008083540402835291602001916115b9565b820191906000526020600020905b81548152906001019060200180831161159c57829003601f168201915b50505050508682815181106115d1576115d0614038565b5b60200260200101819052506003600082815260200190815260200160002060020180546115fd90614096565b80601f016020809104026020016040519081016040528092919081815260200182805461162990614096565b80156116765780601f1061164b57610100808354040283529160200191611676565b820191906000526020600020905b81548152906001019060200180831161165957829003601f168201915b505050505085828151811061168e5761168d614038565b5b60200260200101819052506003600082815260200190815260200160002060030180546116ba90614096565b80601f01602080910402602001604051908101604052809291908181526020018280546116e690614096565b80156117335780601f1061170857610100808354040283529160200191611733565b820191906000526020600020905b81548152906001019060200180831161171657829003601f168201915b505050505084828151811061174b5761174a614038565b5b602002602001018190525060036000828152602001908152602001600020600401548382815181106117805761177f614038565b5b6020026020010181815250506003600082815260200190815260200160002060050180546117ad90614096565b80601f01602080910402602001604051908101604052809291908181526020018280546117d990614096565b80156118265780601f106117fb57610100808354040283529160200191611826565b820191906000526020600020905b81548152906001019060200180831161180957829003601f168201915b505050505082828151811061183e5761183d614038565b5b60200260200101819052508080611854906140f7565b9150506114df565b508585858585859b509b509b509b509b509b50505050505050909192939495565b6040518060e0016040528060005481526020018781526020018681526020018581526020018481526020018373ffffffffffffffffffffffffffffffffffffffff1681526020018273ffffffffffffffffffffffffffffffffffffffff168152506002600080548152602001908152602001600020600082015181600001556020820151816001019080519060200190611918929190613447565b506040820151816002019080519060200190611935929190613447565b506060820151816003019080519060200190611952929190613447565b506080820151816004015560a08201518160050160006101000a81548173ffffffffffffffffffffffffffffffffffffffff021916908373ffffffffffffffffffffffffffffffffffffffff16021790555060c08201518160060160006101000a81548173ffffffffffffffffffffffffffffffffffffffff021916908373ffffffffffffffffffffffffffffffffffffffff160217905550905050600080815480929190611a00906140f7565b9190505550600a87604051611a15919061417c565b908152602001604051809103902084908060018154018082558091505060019003906000526020600020016000909190919091509080519060200190611a5c929190613447565b5050505050505050565b6040518060c0016040528060015481526020018481526020018581526020018381526020018281526020016040518060400160405280600981526020017f417661696c61626c650000000000000000000000000000000000000000000000815250815250600360006001548152602001908152602001600020600082015181600001556020820151816001019080519060200190611b05929190613447565b506040820151816002019080519060200190611b22929190613447565b506060820151816003019080519060200190611b3f929190613447565b506080820151816004015560a0820151816005019080519060200190611b66929190613447565b50905050600154600484604051611b7d919061417c565b90815260200160405180910390208190555060016000815480929190611ba2906140f7565b919050555084600584604051611bb8919061417c565b90815260200160405180910390209080519060200190611bd9929190613447565b505050505050565b60608060608060608060606000600a89604051611bfe919061417c565b9081526020016040518091039020805480602002602001604051908101604052809291908181526020016000905b82821015611cd8578382906000526020600020018054611c4b90614096565b80601f0160208091040260200160405190810160405280929190818152602001828054611c7790614096565b8015611cc45780601f10611c9957610100808354040283529160200191611cc4565b820191906000526020600020905b815481529060010190602001808311611ca757829003601f168201915b505050505081526020019060010190611c2c565b505050509050600080805467ffffffffffffffff811115611cfc57611cfb6138bb565b5b604051908082528060200260200182016040528015611d2a5781602001602082028036833780820191505090505b5090506000805467ffffffffffffffff811115611d4a57611d496138bb565b5b604051908082528060200260200182016040528015611d7d57816020015b6060815260200190600190039081611d685790505b5090506000805467ffffffffffffffff811115611d9d57611d9c6138bb565b5b604051908082528060200260200182016040528015611dd057816020015b6060815260200190600190039081611dbb5790505b5090506000805467ffffffffffffffff811115611df057611def6138bb565b5b604051908082528060200260200182016040528015611e2357816020015b6060815260200190600190039081611e0e5790505b5090506000805467ffffffffffffffff811115611e4357611e426138bb565b5b604051908082528060200260200182016040528015611e715781602001602082028036833780820191505090505b5090506000805467ffffffffffffffff811115611e9157611e906138bb565b5b604051908082528060200260200182016040528015611ebf5781602001602082028036833780820191505090505b5090506000805467ffffffffffffffff811115611edf57611ede6138bb565b5b604051908082528060200260200182016040528015611f0d5781602001602082028036833780820191505090505b50905060005b6000548110156123d55760005b8a518110156123c157611feb600260008481526020019081526020016000206003018054611f4d90614096565b80601f0160208091040260200160405190810160405280929190818152602001828054611f7990614096565b8015611fc65780601f10611f9b57610100808354040283529160200191611fc6565b820191906000526020600020905b815481529060010190602001808311611fa957829003601f168201915b50505050508c8381518110611fde57611fdd614038565b5b602002602001015161340b565b156123ae576002600083815260200190815260200160002060000154898b8151811061201a57612019614038565b5b60200260200101818152505060026000838152602001908152602001600020600101805461204790614096565b80601f016020809104026020016040519081016040528092919081815260200182805461207390614096565b80156120c05780601f10612095576101008083540402835291602001916120c0565b820191906000526020600020905b8154815290600101906020018083116120a357829003601f168201915b5050505050888b815181106120d8576120d7614038565b5b602002602001018190525060026000838152602001908152602001600020600201805461210490614096565b80601f016020809104026020016040519081016040528092919081815260200182805461213090614096565b801561217d5780601f106121525761010080835404028352916020019161217d565b820191906000526020600020905b81548152906001019060200180831161216057829003601f168201915b5050505050878b8151811061219557612194614038565b5b60200260200101819052506002600083815260200190815260200160002060030180546121c190614096565b80601f01602080910402602001604051908101604052809291908181526020018280546121ed90614096565b801561223a5780601f1061220f5761010080835404028352916020019161223a565b820191906000526020600020905b81548152906001019060200180831161221d57829003601f168201915b5050505050868b8151811061225257612251614038565b5b60200260200101819052506002600083815260200190815260200160002060040154858b8151811061228757612286614038565b5b6020026020010181815250506002600083815260200190815260200160002060050160009054906101000a900473ffffffffffffffffffffffffffffffffffffffff16848b815181106122dd576122dc614038565b5b602002602001019073ffffffffffffffffffffffffffffffffffffffff16908173ffffffffffffffffffffffffffffffffffffffff16815250506002600083815260200190815260200160002060060160009054906101000a900473ffffffffffffffffffffffffffffffffffffffff16838b8151811061236157612360614038565b5b602002602001019073ffffffffffffffffffffffffffffffffffffffff16908173ffffffffffffffffffffffffffffffffffffffff168152505089806123a6906140f7565b9a50506123c1565b80806123b9906140f7565b915050611f20565b5080806123cd906140f7565b915050611f13565b50868686868686869f509f509f509f509f509f509f50505050505050505050919395979092949650565b606060008060009050600060015411156124e757600091505b6001548210156124e6576124ca60036000848152602001908152602001600020600101805461244690614096565b80601f016020809104026020016040519081016040528092919081815260200182805461247290614096565b80156124bf5780601f10612494576101008083540402835291602001916124bf565b820191906000526020600020905b8154815290600101906020018083116124a257829003601f168201915b50505050508661340b565b156124d3578190505b81806124de906140f7565b925050612418565b5b60036000828152602001908152602001600020600501805461250890614096565b80601f016020809104026020016040519081016040528092919081815260200182805461253490614096565b80156125815780601f1061255657610100808354040283529160200191612581565b820191906000526020600020905b81548152906001019060200180831161256457829003601f168201915b505050505092506125c7836040518060400160405280600981526020017f417661696c61626c65000000000000000000000000000000000000000000000081525061340b565b156126b8576040518060400160405280600281526020017f4e4100000000000000000000000000000000000000000000000000000000000081525060036000838152602001908152602001600020600501908051906020019061262b929190613447565b5060098460405161263c919061417c565b908152602001604051809103902085908060018154018082558091505060019003906000526020600020016000909190919091509080519060200190612683929190613447565b5083600786604051612695919061417c565b908152602001604051809103902090805190602001906126b6929190613447565b505b5050505050565b600a8280516020810182018051848252602083016020850120818352809550505050505081815481106126f157600080fd5b9060005260206000200160009150915050805461270d90614096565b80601f016020809104026020016040519081016040528092919081815260200182805461273990614096565b80156127865780601f1061275b57610100808354040283529160200191612786565b820191906000526020600020905b81548152906001019060200180831161276957829003601f168201915b505050505081565b60006128406007846040516127a3919061417c565b908152602001604051809103902080546127bc90614096565b80601f01602080910402602001604051908101604052809291908181526020018280546127e890614096565b80156128355780601f1061280a57610100808354040283529160200191612835565b820191906000526020600020905b81548152906001019060200180831161281857829003601f168201915b50505050508361340b565b1561284e5760019050612853565b600090505b92915050565b6004818051602081018201805184825260208301602085012081835280955050505050506000915090505481565b60058180516020810182018051848252602083016020850120818352809550505050505060009150905080546128bc90614096565b80601f01602080910402602001604051908101604052809291908181526020018280546128e890614096565b80156129355780601f1061290a57610100808354040283529160200191612935565b820191906000526020600020905b81548152906001019060200180831161291857829003601f168201915b505050505081565b600882805160208101820180518482526020830160208501208183528095505050505050818154811061296f57600080fd5b9060005260206000200160009150915050805461298b90614096565b80601f01602080910402602001604051908101604052809291908181526020018280546129b790614096565b8015612a045780601f106129d957610100808354040283529160200191612a04565b820191906000526020600020905b8154815290600101906020018083116129e757829003601f168201915b505050505081565b60608060606000600985604051612a23919061417c565b9081526020016040518091039020805480602002602001604051908101604052809291908181526020016000905b82821015612afd578382906000526020600020018054612a7090614096565b80601f0160208091040260200160405190810160405280929190818152602001828054612a9c90614096565b8015612ae95780601f10612abe57610100808354040283529160200191612ae9565b820191906000526020600020905b815481529060010190602001808311612acc57829003601f168201915b505050505081526020019060010190612a51565b5050505090506000815167ffffffffffffffff811115612b2057612b1f6138bb565b5b604051908082528060200260200182016040528015612b5357816020015b6060815260200190600190039081612b3e5790505b5090506000825167ffffffffffffffff811115612b7357612b726138bb565b5b604051908082528060200260200182016040528015612ba657816020015b6060815260200190600190039081612b915790505b50905060005b8351811015612d86576006848281518110612bca57612bc9614038565b5b6020026020010151604051612bdf919061417c565b90815260200160405180910390208054612bf890614096565b80601f0160208091040260200160405190810160405280929190818152602001828054612c2490614096565b8015612c715780601f10612c4657610100808354040283529160200191612c71565b820191906000526020600020905b815481529060010190602001808311612c5457829003601f168201915b5050505050838281518110612c8957612c88614038565b5b60200260200101819052506005848281518110612ca957612ca8614038565b5b6020026020010151604051612cbe919061417c565b90815260200160405180910390208054612cd790614096565b80601f0160208091040260200160405190810160405280929190818152602001828054612d0390614096565b8015612d505780601f10612d2557610100808354040283529160200191612d50565b820191906000526020600020905b815481529060010190602001808311612d3357829003601f168201915b5050505050828281518110612d6857612d67614038565b5b60200260200101819052508080612d7e906140f7565b915050612bac565b508282829550955095505050509193909250565b6006818051602081018201805184825260208301602085012081835280955050505050506000915090508054612dcf90614096565b80601f0160208091040260200160405190810160405280929190818152602001828054612dfb90614096565b8015612e485780601f10612e1d57610100808354040283529160200191612e48565b820191906000526020600020905b815481529060010190602001808311612e2b57829003601f168201915b505050505081565b6007818051602081018201805184825260208301602085012081835280955050505050506000915090508054612e8590614096565b80601f0160208091040260200160405190810160405280929190818152602001828054612eb190614096565b8015612efe5780601f10612ed357610100808354040283529160200191612efe565b820191906000526020600020905b815481529060010190602001808311612ee157829003601f168201915b505050505081565b6003602052806000526040600020600091509050806000015490806001018054612f2f90614096565b80601f0160208091040260200160405190810160405280929190818152602001828054612f5b90614096565b8015612fa85780601f10612f7d57610100808354040283529160200191612fa8565b820191906000526020600020905b815481529060010190602001808311612f8b57829003601f168201915b505050505090806002018054612fbd90614096565b80601f0160208091040260200160405190810160405280929190818152602001828054612fe990614096565b80156130365780601f1061300b57610100808354040283529160200191613036565b820191906000526020600020905b81548152906001019060200180831161301957829003601f168201915b50505050509080600301805461304b90614096565b80601f016020809104026020016040519081016040528092919081815260200182805461307790614096565b80156130c45780601f10613099576101008083540402835291602001916130c4565b820191906000526020600020905b8154815290600101906020018083116130a757829003601f168201915b5050505050908060040154908060050180546130df90614096565b80601f016020809104026020016040519081016040528092919081815260200182805461310b90614096565b80156131585780601f1061312d57610100808354040283529160200191613158565b820191906000526020600020905b81548152906001019060200180831161313b57829003601f168201915b5050505050905086565b600260205280600052604060002060009150905080600001549080600101805461318b90614096565b80601f01602080910402602001604051908101604052809291908181526020018280546131b790614096565b80156132045780601f106131d957610100808354040283529160200191613204565b820191906000526020600020905b8154815290600101906020018083116131e757829003601f168201915b50505050509080600201805461321990614096565b80601f016020809104026020016040519081016040528092919081815260200182805461324590614096565b80156132925780601f1061326757610100808354040283529160200191613292565b820191906000526020600020905b81548152906001019060200180831161327557829003601f168201915b5050505050908060030180546132a790614096565b80601f01602080910402602001604051908101604052809291908181526020018280546132d390614096565b80156133205780601f106132f557610100808354040283529160200191613320565b820191906000526020600020905b81548152906001019060200180831161330357829003601f168201915b5050505050908060040154908060050160009054906101000a900473ffffffffffffffffffffffffffffffffffffffff16908060060160009054906101000a900473ffffffffffffffffffffffffffffffffffffffff16905087565b60088160405161338c919061417c565b9081526020016040518091039020829080600181540180825580915050600190039060005260206000200160009091909190915090805190602001906133d3929190613447565b50806006836040516133e5919061417c565b90815260200160405180910390209080519060200190613406929190613447565b505050565b6000613417838361341f565b905092915050565b60008151835114801561343f575081805190602001208380519060200120145b905092915050565b82805461345390614096565b90600052602060002090601f01602090048101928261347557600085556134bc565b82601f1061348e57805160ff19168380011785556134bc565b828001600101855582156134bc579182015b828111156134bb5782518255916020019190600101906134a0565b5b5090506134c991906134cd565b5090565b5b808211156134e65760008160009055506001016134ce565b5090565b600081519050919050565b600082825260208201905092915050565b6000819050602082019050919050565b6000819050919050565b61352981613516565b82525050565b600061353b8383613520565b60208301905092915050565b6000602082019050919050565b600061355f826134ea565b61356981856134f5565b935061357483613506565b8060005b838110156135a557815161358c888261352f565b975061359783613547565b925050600181019050613578565b5085935050505092915050565b600081519050919050565b600082825260208201905092915050565b6000819050602082019050919050565b600081519050919050565b600082825260208201905092915050565b60005b838110156136185780820151818401526020810190506135fd565b83811115613627576000848401525b50505050565b6000601f19601f8301169050919050565b6000613649826135de565b61365381856135e9565b93506136638185602086016135fa565b61366c8161362d565b840191505092915050565b6000613683838361363e565b905092915050565b6000602082019050919050565b60006136a3826135b2565b6136ad81856135bd565b9350836020820285016136bf856135ce565b8060005b858110156136fb57848403895281516136dc8582613677565b94506136e78361368b565b925060208a019950506001810190506136c3565b50829750879550505050505092915050565b600081519050919050565b600082825260208201905092915050565b6000819050602082019050919050565b600073ffffffffffffffffffffffffffffffffffffffff82169050919050565b600061376482613739565b9050919050565b61377481613759565b82525050565b6000613786838361376b565b60208301905092915050565b6000602082019050919050565b60006137aa8261370d565b6137b48185613718565b93506137bf83613729565b8060005b838110156137f05781516137d7888261377a565b97506137e283613792565b9250506001810190506137c3565b5085935050505092915050565b600060e0820190508181036000830152613817818a613554565b9050818103602083015261382b8189613698565b9050818103604083015261383f8188613698565b905081810360608301526138538187613698565b905081810360808301526138678186613554565b905081810360a083015261387b818561379f565b905081810360c083015261388f818461379f565b905098975050505050505050565b6000604051905090565b600080fd5b600080fd5b600080fd5b600080fd5b7f4e487b7100000000000000000000000000000000000000000000000000000000600052604160045260246000fd5b6138f38261362d565b810181811067ffffffffffffffff82111715613912576139116138bb565b5b80604052505050565b600061392561389d565b905061393182826138ea565b919050565b600067ffffffffffffffff821115613951576139506138bb565b5b61395a8261362d565b9050602081019050919050565b82818337600083830152505050565b600061398961398484613936565b61391b565b9050828152602081018484840111156139a5576139a46138b6565b5b6139b0848285613967565b509392505050565b600082601f8301126139cd576139cc6138b1565b5b81356139dd848260208601613976565b91505092915050565b6000602082840312156139fc576139fb6138a7565b5b600082013567ffffffffffffffff811115613a1a57613a196138ac565b5b613a26848285016139b8565b91505092915050565b600060c0820190508181036000830152613a498189613554565b90508181036020830152613a5d8188613698565b90508181036040830152613a718187613698565b90508181036060830152613a858186613698565b90508181036080830152613a998185613554565b905081810360a0830152613aad8184613698565b9050979650505050505050565b613ac381613516565b8114613ace57600080fd5b50565b600081359050613ae081613aba565b92915050565b60008060408385031215613afd57613afc6138a7565b5b600083013567ffffffffffffffff811115613b1b57613b1a6138ac565b5b613b27858286016139b8565b9250506020613b3885828601613ad1565b9150509250929050565b600082825260208201905092915050565b6000613b5e826135de565b613b688185613b42565b9350613b788185602086016135fa565b613b818161362d565b840191505092915050565b60006020820190508181036000830152613ba68184613b53565b905092915050565b613bb781613759565b8114613bc257600080fd5b50565b600081359050613bd481613bae565b92915050565b600080600080600080600060e0888a031215613bf957613bf86138a7565b5b600088013567ffffffffffffffff811115613c1757613c166138ac565b5b613c238a828b016139b8565b975050602088013567ffffffffffffffff811115613c4457613c436138ac565b5b613c508a828b016139b8565b965050604088013567ffffffffffffffff811115613c7157613c706138ac565b5b613c7d8a828b016139b8565b955050606088013567ffffffffffffffff811115613c9e57613c9d6138ac565b5b613caa8a828b016139b8565b9450506080613cbb8a828b01613ad1565b93505060a0613ccc8a828b01613bc5565b92505060c0613cdd8a828b01613bc5565b91505092959891949750929550565b600080600080600060a08688031215613d0857613d076138a7565b5b600086013567ffffffffffffffff811115613d2657613d256138ac565b5b613d32888289016139b8565b955050602086013567ffffffffffffffff811115613d5357613d526138ac565b5b613d5f888289016139b8565b945050604086013567ffffffffffffffff811115613d8057613d7f6138ac565b5b613d8c888289016139b8565b935050606086013567ffffffffffffffff811115613dad57613dac6138ac565b5b613db9888289016139b8565b9250506080613dca88828901613ad1565b9150509295509295909350565b60008060408385031215613dee57613ded6138a7565b5b600083013567ffffffffffffffff811115613e0c57613e0b6138ac565b5b613e18858286016139b8565b925050602083013567ffffffffffffffff811115613e3957613e386138ac565b5b613e45858286016139b8565b9150509250929050565b60008115159050919050565b613e6481613e4f565b82525050565b6000602082019050613e7f6000830184613e5b565b92915050565b613e8e81613516565b82525050565b6000602082019050613ea96000830184613e85565b92915050565b60006060820190508181036000830152613ec98186613698565b90508181036020830152613edd8185613698565b90508181036040830152613ef18184613698565b9050949350505050565b600060208284031215613f1157613f106138a7565b5b6000613f1f84828501613ad1565b91505092915050565b600060c082019050613f3d6000830189613e85565b8181036020830152613f4f8188613b53565b90508181036040830152613f638187613b53565b90508181036060830152613f778186613b53565b9050613f866080830185613e85565b81810360a0830152613f988184613b53565b9050979650505050505050565b613fae81613759565b82525050565b600060e082019050613fc9600083018a613e85565b8181036020830152613fdb8189613b53565b90508181036040830152613fef8188613b53565b905081810360608301526140038187613b53565b90506140126080830186613e85565b61401f60a0830185613fa5565b61402c60c0830184613fa5565b98975050505050505050565b7f4e487b7100000000000000000000000000000000000000000000000000000000600052603260045260246000fd5b7f4e487b7100000000000000000000000000000000000000000000000000000000600052602260045260246000fd5b600060028204905060018216806140ae57607f821691505b602082108114156140c2576140c1614067565b5b50919050565b7f4e487b7100000000000000000000000000000000000000000000000000000000600052601160045260246000fd5b600061410282613516565b91507fffffffffffffffffffffffffffffffffffffffffffffffffffffffffffffffff821415614135576141346140c8565b5b600182019050919050565b600081905092915050565b6000614156826135de565b6141608185614140565b93506141708185602086016135fa565b80840191505092915050565b6000614188828461414b565b91508190509291505056fea2646970667358221220823bf7d96b4c87c928b70c458b1326f04886b2e854bcb79e8ec9b13707f28b4e64736f6c634300080c0033",
  "immutableReferences": {},
  "source": "// SPDX-License-Identifier: GPL-3.0\r\npragma solidity ^0.8.12;\r\n\r\ncontract product1 {\r\n\r\n    uint256 sellerCount;\r\n    uint256 productCount;\r\n\r\n    struct seller{\r\n        uint256 sellerId; // automated\r\n        string sellerName;\r\n        string sellerBrand;\r\n        string sellerCode; // Password (GST(5)+Phone(4))\r\n        uint256 sellerNum;\r\n        address sellerManager;\r\n        address sellerAddress;\r\n    }\r\n    mapping(uint=>seller) public sellers; // 0 -> sellers details\r\n\r\n    struct productItem{\r\n        uint256 productId;//Automated\r\n        string productSN;\r\n        string productName;\r\n        string productBrand;\r\n        uint256 productPrice;\r\n        string productStatus;\r\n    }\r\n\r\n    mapping(uint256=>productItem) public productItems; //product id  -> details\r\n    mapping(string=>uint256) public productMap; //productSno -> count(id)\r\n    mapping(string=>string) public productsManufactured; //product Sn -> mfr\r\n    mapping(string=>string) public productsForSale; //productSn -> Seller Code\r\n    mapping(string=>string) public productsSold; //productSn-> Consumer Code\r\n    mapping(string=>string[]) public productsWithSeller; //sellerCode -> ProductSno\r\n    mapping(string=>string[]) public productsWithConsumer; //ConsumerCode -> ProductSn\r\n    mapping(string=>string[]) public sellersWithManufacturer; //Mfr id -> seller code\r\n\r\n    // String Custom Comparator\r\n    function memcmp(bytes memory a, bytes memory b) internal pure returns(bool){\r\n        return (a.length == b.length) && (keccak256(a) == keccak256(b));\r\n    }\r\n    function strcmp(string memory a, string memory b) internal pure returns(bool){\r\n        return memcmp(bytes(a), bytes(b));\r\n    }\r\n    //SELLER SECTION\r\n\r\n    function addSeller(string memory _manufacturerId, string memory _sellerName, string memory _sellerBrand, string memory _sellerCode,\r\n    uint256 _sellerNum, address _sellerManager, address _sellerAddress) public{\r\n        sellers[sellerCount] = seller(sellerCount, _sellerName, _sellerBrand, _sellerCode,\r\n        _sellerNum, _sellerManager, _sellerAddress);\r\n        sellerCount++;\r\n        sellersWithManufacturer[_manufacturerId].push(_sellerCode);\r\n    }\r\n\r\n\r\n    function viewSellers () public view returns(uint256[] memory, string[] memory, string[] memory, string[] memory, uint256[] memory, address[] memory, address[] memory) {\r\n        uint256[] memory ids = new uint256[](sellerCount);\r\n        string[] memory snames = new string[](sellerCount);\r\n        string[] memory sbrands = new string[](sellerCount);\r\n        string[] memory scodes = new string[](sellerCount);\r\n        uint256[] memory snums = new uint256[](sellerCount);\r\n        address[] memory smanagers = new address[](sellerCount);\r\n        address[] memory saddress = new address[](sellerCount);\r\n        \r\n        for(uint i=0; i<sellerCount; i++){\r\n            ids[i] = sellers[i].sellerId;\r\n            snames[i] = sellers[i].sellerName;\r\n            sbrands[i] = sellers[i].sellerBrand;\r\n            scodes[i] = sellers[i].sellerCode;\r\n            snums[i] = sellers[i].sellerNum;\r\n            smanagers[i] = sellers[i].sellerManager;\r\n            saddress[i] = sellers[i].sellerAddress;\r\n        }\r\n        return(ids, snames, sbrands, scodes, snums, smanagers, saddress);\r\n    }\r\n\r\n    //PRODUCT SECTION\r\n\r\n    function addProduct(string memory _manufactuerID, string memory _productName, string memory _productSN, string memory _productBrand,\r\n    uint256 _productPrice) public{\r\n        productItems[productCount] = productItem(productCount, _productSN, _productName, _productBrand,\r\n        _productPrice, \"Available\");\r\n        productMap[_productSN] = productCount;\r\n        productCount++;\r\n        productsManufactured[_productSN] = _manufactuerID;\r\n    }\r\n\r\n\r\n    function viewProductItems () public view returns(uint256[] memory, string[] memory, string[] memory, string[] memory, uint256[] memory, string[] memory) {\r\n        uint256[] memory pids = new uint256[](productCount);\r\n        string[] memory pSNs = new string[](productCount);\r\n        string[] memory pnames = new string[](productCount);\r\n        string[] memory pbrands = new string[](productCount);\r\n        uint256[] memory pprices = new uint256[](productCount);\r\n        string[] memory pstatus = new string[](productCount);\r\n        \r\n        for(uint i=0; i<productCount; i++){\r\n            pids[i] = productItems[i].productId;\r\n            pSNs[i] = productItems[i].productSN;\r\n            pnames[i] = productItems[i].productName;\r\n            pbrands[i] = productItems[i].productBrand;\r\n            pprices[i] = productItems[i].productPrice;\r\n            pstatus[i] = productItems[i].productStatus;\r\n        }\r\n        return(pids, pSNs, pnames, pbrands, pprices, pstatus);\r\n    }\r\n\r\n    //SELL Product\r\n\r\n    function manufacturerSellProduct(string memory _productSN, string memory _sellerCode) public{\r\n        productsWithSeller[_sellerCode].push(_productSN);\r\n        productsForSale[_productSN] = _sellerCode;\r\n\r\n    }\r\n\r\n    function sellerSellProduct(string memory _productSN, string memory _consumerCode) public{   \r\n        string memory pStatus;\r\n        uint256 i;\r\n        uint256 j=0;\r\n\r\n        if(productCount>0) {\r\n            for(i=0;i<productCount;i++) {\r\n                if(strcmp(productItems[i].productSN, _productSN)) {\r\n                    j=i;\r\n                }\r\n            }\r\n        }\r\n\r\n        pStatus = productItems[j].productStatus;\r\n        if(strcmp(pStatus,\"Available\")) {\r\n            productItems[j].productStatus = \"NA\";\r\n            productsWithConsumer[_consumerCode].push(_productSN);\r\n            productsSold[_productSN] = _consumerCode;\r\n        }\r\n\r\n\r\n    }\r\n\r\n\r\n    function queryProductsList(string memory _sellerCode) public view returns(uint256[] memory, string[] memory, string[] memory, string[] memory, uint256[] memory, string[] memory){\r\n        string[] memory productSNs = productsWithSeller[_sellerCode];\r\n        uint256 k=0;\r\n\r\n        uint256[] memory pids = new uint256[](productCount);\r\n        string[] memory pSNs = new string[](productCount);\r\n        string[] memory pnames = new string[](productCount);\r\n        string[] memory pbrands = new string[](productCount);\r\n        uint256[] memory pprices = new uint256[](productCount);\r\n        string[] memory pstatus = new string[](productCount);\r\n\r\n        \r\n        for(uint i=0; i<productCount; i++){\r\n            for(uint j=0; j<productSNs.length; j++){\r\n                if(strcmp(productItems[i].productSN,productSNs[j])){\r\n                    pids[k] = productItems[i].productId;\r\n                    pSNs[k] = productItems[i].productSN;\r\n                    pnames[k] = productItems[i].productName;\r\n                    pbrands[k] = productItems[i].productBrand;\r\n                    pprices[k] = productItems[i].productPrice;\r\n                    pstatus[k] = productItems[i].productStatus;\r\n                    k++;\r\n                }\r\n            }\r\n        }\r\n        return(pids, pSNs, pnames, pbrands, pprices, pstatus);\r\n    }\r\n\r\n    function querySellersList (string memory _manufacturerCode) public view returns(uint256[] memory, string[] memory, string[] memory, string[] memory, uint256[] memory, address[] memory, address[] memory) {\r\n        string[] memory sellerCodes = sellersWithManufacturer[_manufacturerCode];\r\n        uint256 k=0;\r\n        uint256[] memory ids = new uint256[](sellerCount);\r\n        string[] memory snames = new string[](sellerCount);\r\n        string[] memory sbrands = new string[](sellerCount);\r\n        string[] memory scodes = new string[](sellerCount);\r\n        uint256[] memory snums = new uint256[](sellerCount);\r\n        address[] memory smanagers = new address[](sellerCount);\r\n        address[] memory saddress = new address[](sellerCount);\r\n        \r\n        for(uint i=0; i<sellerCount; i++){\r\n            for(uint j=0; j<sellerCodes.length; j++){\r\n                if(strcmp(sellers[i].sellerCode, sellerCodes[j])){\r\n                    ids[k] = sellers[i].sellerId;\r\n                    snames[k] = sellers[i].sellerName;\r\n                    sbrands[k] = sellers[i].sellerBrand;\r\n                    scodes[k] = sellers[i].sellerCode;\r\n                    snums[k] = sellers[i].sellerNum;\r\n                    smanagers[k] = sellers[i].sellerManager;\r\n                    saddress[k] = sellers[i].sellerAddress;\r\n                    k++;\r\n                    break;\r\n               }\r\n            }\r\n        }\r\n\r\n        return(ids, snames, sbrands, scodes, snums, smanagers, saddress);\r\n    }\r\n\r\n    function getPurchaseHistory(string memory _consumerCode) public view returns (string[] memory, string[] memory, string[] memory){\r\n        string[] memory productSNs = productsWithConsumer[_consumerCode];\r\n        string[] memory sellerCodes = new string[](productSNs.length);\r\n        string[] memory manufacturerCodes = new string[](productSNs.length);\r\n        for(uint i=0; i<productSNs.length; i++){\r\n            sellerCodes[i] = productsForSale[productSNs[i]];\r\n            manufacturerCodes[i] = productsManufactured[productSNs[i]];\r\n        }\r\n        return (productSNs, sellerCodes, manufacturerCodes);\r\n    }\r\n\r\n    //Verify\r\n\r\n    function verifyProduct(string memory _productSN, string memory _consumerCode) public view returns(bool){\r\n        if(strcmp(productsSold[_productSN], _consumerCode)){\r\n            return true;\r\n        }\r\n        else{\r\n            return false;\r\n        }\r\n    }\r\n}",
  "sourcePath": "D:\\College\\MAJOR II\\Major-II\\contracts\\string_prod.sol",
  "compiler": {
    "name": "solc",
    "version": "0.8.12+commit.f00d7308.Emscripten.clang"
  },
  "schemaVersion": "3.4.10",
  "updatedAt": "2023-04-12T13:42:06.856Z",
  "devdoc": {
    "kind": "dev",
    "methods": {},
    "version": 1
  },
  "userdoc": {
    "kind": "user",
    "methods": {},
    "version": 1
  }
}