{
  "contractName": "product",
  "abi": [
    {
      "inputs": [],
      "stateMutability": "nonpayable",
      "type": "constructor"
    },
    {
      "anonymous": false,
      "inputs": [
        {
          "indexed": false,
          "internalType": "bytes32",
          "name": "_productSN",
          "type": "bytes32"
        },
        {
          "indexed": false,
          "internalType": "string",
          "name": "message",
          "type": "string"
        },
        {
          "indexed": false,
          "internalType": "bytes32",
          "name": "_consumerCode",
          "type": "bytes32"
        }
      ],
      "name": "printVerify",
      "type": "event"
    },
    {
      "inputs": [
        {
          "internalType": "uint256",
          "name": "",
          "type": "uint256"
        }
      ],
      "name": "productItems",
      "outputs": [
        {
          "internalType": "uint256",
          "name": "productId",
          "type": "uint256"
        },
        {
          "internalType": "bytes32",
          "name": "productSN",
          "type": "bytes32"
        },
        {
          "internalType": "bytes32",
          "name": "productName",
          "type": "bytes32"
        },
        {
          "internalType": "bytes32",
          "name": "productBrand",
          "type": "bytes32"
        },
        {
          "internalType": "uint256",
          "name": "productPrice",
          "type": "uint256"
        },
        {
          "internalType": "bytes32",
          "name": "productStatus",
          "type": "bytes32"
        }
      ],
      "stateMutability": "view",
      "type": "function"
    },
    {
      "inputs": [
        {
          "internalType": "bytes32",
          "name": "",
          "type": "bytes32"
        }
      ],
      "name": "productMap",
      "outputs": [
        {
          "internalType": "uint256",
          "name": "",
          "type": "uint256"
        }
      ],
      "stateMutability": "view",
      "type": "function"
    },
    {
      "inputs": [
        {
          "internalType": "bytes32",
          "name": "",
          "type": "bytes32"
        }
      ],
      "name": "productsForSale",
      "outputs": [
        {
          "internalType": "bytes32",
          "name": "",
          "type": "bytes32"
        }
      ],
      "stateMutability": "view",
      "type": "function"
    },
    {
      "inputs": [
        {
          "internalType": "bytes32",
          "name": "",
          "type": "bytes32"
        }
      ],
      "name": "productsManufactured",
      "outputs": [
        {
          "internalType": "bytes32",
          "name": "",
          "type": "bytes32"
        }
      ],
      "stateMutability": "view",
      "type": "function"
    },
    {
      "inputs": [
        {
          "internalType": "bytes32",
          "name": "",
          "type": "bytes32"
        }
      ],
      "name": "productsSold",
      "outputs": [
        {
          "internalType": "bytes32",
          "name": "",
          "type": "bytes32"
        }
      ],
      "stateMutability": "view",
      "type": "function"
    },
    {
      "inputs": [
        {
          "internalType": "bytes32",
          "name": "",
          "type": "bytes32"
        },
        {
          "internalType": "uint256",
          "name": "",
          "type": "uint256"
        }
      ],
      "name": "productsWithConsumer",
      "outputs": [
        {
          "internalType": "bytes32",
          "name": "",
          "type": "bytes32"
        }
      ],
      "stateMutability": "view",
      "type": "function"
    },
    {
      "inputs": [
        {
          "internalType": "bytes32",
          "name": "",
          "type": "bytes32"
        },
        {
          "internalType": "uint256",
          "name": "",
          "type": "uint256"
        }
      ],
      "name": "productsWithSeller",
      "outputs": [
        {
          "internalType": "bytes32",
          "name": "",
          "type": "bytes32"
        }
      ],
      "stateMutability": "view",
      "type": "function"
    },
    {
      "inputs": [
        {
          "internalType": "uint256",
          "name": "",
          "type": "uint256"
        }
      ],
      "name": "sellers",
      "outputs": [
        {
          "internalType": "uint256",
          "name": "sellerId",
          "type": "uint256"
        },
        {
          "internalType": "bytes32",
          "name": "sellerName",
          "type": "bytes32"
        },
        {
          "internalType": "bytes32",
          "name": "sellerBrand",
          "type": "bytes32"
        },
        {
          "internalType": "bytes32",
          "name": "sellerCode",
          "type": "bytes32"
        },
        {
          "internalType": "uint256",
          "name": "sellerNum",
          "type": "uint256"
        },
        {
          "internalType": "bytes32",
          "name": "sellerManager",
          "type": "bytes32"
        },
        {
          "internalType": "address",
          "name": "sellerAddress",
          "type": "address"
        }
      ],
      "stateMutability": "view",
      "type": "function"
    },
    {
      "inputs": [
        {
          "internalType": "bytes32",
          "name": "",
          "type": "bytes32"
        },
        {
          "internalType": "uint256",
          "name": "",
          "type": "uint256"
        }
      ],
      "name": "sellersWithManufacturer",
      "outputs": [
        {
          "internalType": "bytes32",
          "name": "",
          "type": "bytes32"
        }
      ],
      "stateMutability": "view",
      "type": "function"
    },
    {
      "inputs": [],
      "name": "viewOwner",
      "outputs": [
        {
          "internalType": "address",
          "name": "",
          "type": "address"
        }
      ],
      "stateMutability": "view",
      "type": "function"
    },
    {
      "inputs": [
        {
          "internalType": "bytes32",
          "name": "_manufacturerId",
          "type": "bytes32"
        },
        {
          "internalType": "bytes32",
          "name": "_sellerName",
          "type": "bytes32"
        },
        {
          "internalType": "bytes32",
          "name": "_sellerBrand",
          "type": "bytes32"
        },
        {
          "internalType": "bytes32",
          "name": "_sellerCode",
          "type": "bytes32"
        },
        {
          "internalType": "uint256",
          "name": "_sellerNum",
          "type": "uint256"
        },
        {
          "internalType": "bytes32",
          "name": "_sellerManager",
          "type": "bytes32"
        },
        {
          "internalType": "address",
          "name": "_sellerAddress",
          "type": "address"
        }
      ],
      "name": "addSeller",
      "outputs": [],
      "stateMutability": "nonpayable",
      "type": "function"
    },
    {
      "inputs": [],
      "name": "viewSellers",
      "outputs": [
        {
          "internalType": "uint256[]",
          "name": "",
          "type": "uint256[]"
        },
        {
          "internalType": "bytes32[]",
          "name": "",
          "type": "bytes32[]"
        },
        {
          "internalType": "bytes32[]",
          "name": "",
          "type": "bytes32[]"
        },
        {
          "internalType": "bytes32[]",
          "name": "",
          "type": "bytes32[]"
        },
        {
          "internalType": "uint256[]",
          "name": "",
          "type": "uint256[]"
        },
        {
          "internalType": "bytes32[]",
          "name": "",
          "type": "bytes32[]"
        },
        {
          "internalType": "address[]",
          "name": "",
          "type": "address[]"
        }
      ],
      "stateMutability": "view",
      "type": "function"
    },
    {
      "inputs": [
        {
          "internalType": "bytes32",
          "name": "_manufactuerID",
          "type": "bytes32"
        },
        {
          "internalType": "bytes32",
          "name": "_productName",
          "type": "bytes32"
        },
        {
          "internalType": "bytes32",
          "name": "_productSN",
          "type": "bytes32"
        },
        {
          "internalType": "bytes32",
          "name": "_productBrand",
          "type": "bytes32"
        },
        {
          "internalType": "uint256",
          "name": "_productPrice",
          "type": "uint256"
        }
      ],
      "name": "addProduct",
      "outputs": [],
      "stateMutability": "nonpayable",
      "type": "function"
    },
    {
      "inputs": [],
      "name": "viewProductItems",
      "outputs": [
        {
          "internalType": "uint256[]",
          "name": "",
          "type": "uint256[]"
        },
        {
          "internalType": "bytes32[]",
          "name": "",
          "type": "bytes32[]"
        },
        {
          "internalType": "bytes32[]",
          "name": "",
          "type": "bytes32[]"
        },
        {
          "internalType": "bytes32[]",
          "name": "",
          "type": "bytes32[]"
        },
        {
          "internalType": "uint256[]",
          "name": "",
          "type": "uint256[]"
        },
        {
          "internalType": "bytes32[]",
          "name": "",
          "type": "bytes32[]"
        }
      ],
      "stateMutability": "view",
      "type": "function"
    },
    {
      "inputs": [
        {
          "internalType": "bytes32",
          "name": "_productSN",
          "type": "bytes32"
        },
        {
          "internalType": "bytes32",
          "name": "_sellerCode",
          "type": "bytes32"
        }
      ],
      "name": "manufacturerSellProduct",
      "outputs": [],
      "stateMutability": "nonpayable",
      "type": "function"
    },
    {
      "inputs": [
        {
          "internalType": "bytes32",
          "name": "_productSN",
          "type": "bytes32"
        },
        {
          "internalType": "bytes32",
          "name": "_consumerCode",
          "type": "bytes32"
        },
        {
          "internalType": "bytes32",
          "name": "_sellerCode",
          "type": "bytes32"
        }
      ],
      "name": "sellerSellProduct",
      "outputs": [],
      "stateMutability": "nonpayable",
      "type": "function"
    },
    {
      "inputs": [
        {
          "internalType": "bytes32",
          "name": "_sellerCode",
          "type": "bytes32"
        }
      ],
      "name": "queryProductsList",
      "outputs": [
        {
          "internalType": "uint256[]",
          "name": "",
          "type": "uint256[]"
        },
        {
          "internalType": "bytes32[]",
          "name": "",
          "type": "bytes32[]"
        },
        {
          "internalType": "bytes32[]",
          "name": "",
          "type": "bytes32[]"
        },
        {
          "internalType": "bytes32[]",
          "name": "",
          "type": "bytes32[]"
        },
        {
          "internalType": "uint256[]",
          "name": "",
          "type": "uint256[]"
        },
        {
          "internalType": "bytes32[]",
          "name": "",
          "type": "bytes32[]"
        }
      ],
      "stateMutability": "view",
      "type": "function"
    },
    {
      "inputs": [
        {
          "internalType": "bytes32",
          "name": "_manufacturerCode",
          "type": "bytes32"
        }
      ],
      "name": "querySellersList",
      "outputs": [
        {
          "internalType": "uint256[]",
          "name": "",
          "type": "uint256[]"
        },
        {
          "internalType": "bytes32[]",
          "name": "",
          "type": "bytes32[]"
        },
        {
          "internalType": "bytes32[]",
          "name": "",
          "type": "bytes32[]"
        },
        {
          "internalType": "bytes32[]",
          "name": "",
          "type": "bytes32[]"
        },
        {
          "internalType": "uint256[]",
          "name": "",
          "type": "uint256[]"
        },
        {
          "internalType": "bytes32[]",
          "name": "",
          "type": "bytes32[]"
        },
        {
          "internalType": "address[]",
          "name": "",
          "type": "address[]"
        }
      ],
      "stateMutability": "view",
      "type": "function"
    },
    {
      "inputs": [
        {
          "internalType": "bytes32",
          "name": "_consumerCode",
          "type": "bytes32"
        }
      ],
      "name": "getPurchaseHistory",
      "outputs": [
        {
          "internalType": "bytes32[]",
          "name": "",
          "type": "bytes32[]"
        },
        {
          "internalType": "bytes32[]",
          "name": "",
          "type": "bytes32[]"
        },
        {
          "internalType": "bytes32[]",
          "name": "",
          "type": "bytes32[]"
        }
      ],
      "stateMutability": "view",
      "type": "function"
    },
    {
      "inputs": [
        {
          "internalType": "bytes32",
          "name": "_productSN",
          "type": "bytes32"
        },
        {
          "internalType": "bytes32",
          "name": "_consumerCode",
          "type": "bytes32"
        }
      ],
      "name": "verifyProduct",
      "outputs": [
        {
          "internalType": "bool",
          "name": "",
          "type": "bool"
        }
      ],
      "stateMutability": "view",
      "type": "function"
    }
  ],
  "bytecode": "0x608060405234801561001057600080fd5b5033600260006101000a81548173ffffffffffffffffffffffffffffffffffffffff021916908373ffffffffffffffffffffffffffffffffffffffff160217905550612b97806100616000396000f3fe608060405234801561001057600080fd5b506004361061012c5760003560e01c80639cd777dd116100ad578063caaf275111610071578063caaf2751146103a7578063cd4f6a2e146103dc578063cee26ed51461040c578063e262113f14610442578063e5d194ab146104725761012c565b80639cd777dd146102c75780639ea4695d146102f7578063a090f47c14610329578063bc677b4614610359578063c20805b4146103775761012c565b80634b993001116100f45780634b9930011461020e5780635209b2991461023e5780638577a7011461025a57806392162bc4146102765780639316bff0146102ab5761012c565b8063032f95e614610131578063100b6ba214610155578063130aa81f146101855780631836bd4b146101bb578063344b5d51146101de575b600080fd5b61013961048e565b60405161014c9796959493929190612244565b60405180910390f35b61016f600480360381019061016a9190612315565b6108c9565b60405161017c9190612351565b60405180910390f35b61019f600480360381019061019a9190612315565b6108e1565b6040516101b29796959493929190612244565b60405180910390f35b6101c3610df2565b6040516101d59695949392919061236c565b60405180910390f35b6101f860048036038101906101f391906123f7565b61115a565b6040516102059190612452565b60405180910390f35b61022860048036038101906102239190612499565b6111e0565b60405161023591906124e8565b60405180910390f35b6102586004803603810190610253919061252f565b611211565b005b610274600480360381019061026f91906123f7565b6113c5565b005b610290600480360381019061028b9190612315565b61141b565b6040516102a29695949392919061236c565b60405180910390f35b6102c560048036038101906102c091906125d1565b611854565b005b6102e160048036038101906102dc9190612499565b611a14565b6040516102ee91906124e8565b60405180910390f35b610311600480360381019061030c9190612315565b611a45565b6040516103209392919061264c565b60405180910390f35b610343600480360381019061033e9190612315565b611c19565b60405161035091906124e8565b60405180910390f35b610361611c31565b60405161036e91906126a7565b60405180910390f35b610391600480360381019061038c9190612315565b611c5b565b60405161039e91906124e8565b60405180910390f35b6103c160048036038101906103bc91906126c2565b611c73565b6040516103d3969594939291906126ef565b60405180910390f35b6103f660048036038101906103f19190612315565b611caf565b60405161040391906124e8565b60405180910390f35b610426600480360381019061042191906126c2565b611cc7565b6040516104399796959493929190612750565b60405180910390f35b61045c60048036038101906104579190612499565b611d29565b60405161046991906124e8565b60405180910390f35b61048c600480360381019061048791906127bf565b611d5a565b005b60608060608060608060606000805467ffffffffffffffff8111156104b6576104b5612812565b5b6040519080825280602002602001820160405280156104e45781602001602082028036833780820191505090505b5090506000805467ffffffffffffffff81111561050457610503612812565b5b6040519080825280602002602001820160405280156105325781602001602082028036833780820191505090505b5090506000805467ffffffffffffffff81111561055257610551612812565b5b6040519080825280602002602001820160405280156105805781602001602082028036833780820191505090505b5090506000805467ffffffffffffffff8111156105a05761059f612812565b5b6040519080825280602002602001820160405280156105ce5781602001602082028036833780820191505090505b5090506000805467ffffffffffffffff8111156105ee576105ed612812565b5b60405190808252806020026020018201604052801561061c5781602001602082028036833780820191505090505b5090506000805467ffffffffffffffff81111561063c5761063b612812565b5b60405190808252806020026020018201604052801561066a5781602001602082028036833780820191505090505b5090506000805467ffffffffffffffff81111561068a57610689612812565b5b6040519080825280602002602001820160405280156106b85781602001602082028036833780820191505090505b50905060005b6000548110156108a35760036000828152602001908152602001600020600001548882815181106106f2576106f1612841565b5b602002602001018181525050600360008281526020019081526020016000206001015487828151811061072857610727612841565b5b602002602001018181525050600360008281526020019081526020016000206002015486828151811061075e5761075d612841565b5b602002602001018181525050600360008281526020019081526020016000206003015485828151811061079457610793612841565b5b60200260200101818152505060036000828152602001908152602001600020600401548482815181106107ca576107c9612841565b5b6020026020010181815250506003600082815260200190815260200160002060050154838281518110610800576107ff612841565b5b6020026020010181815250506003600082815260200190815260200160002060060160009054906101000a900473ffffffffffffffffffffffffffffffffffffffff1682828151811061085657610855612841565b5b602002602001019073ffffffffffffffffffffffffffffffffffffffff16908173ffffffffffffffffffffffffffffffffffffffff1681525050808061089b9061289f565b9150506106be565b50868686868686869d509d509d509d509d509d509d505050505050505090919293949596565b60056020528060005260406000206000915090505481565b60608060608060608060606000600b60008a815260200190815260200160002080548060200260200160405190810160405280929190818152602001828054801561094b57602002820191906000526020600020905b815481526020019060010190808311610937575b50505050509050600080805467ffffffffffffffff8111156109705761096f612812565b5b60405190808252806020026020018201604052801561099e5781602001602082028036833780820191505090505b5090506000805467ffffffffffffffff8111156109be576109bd612812565b5b6040519080825280602002602001820160405280156109ec5781602001602082028036833780820191505090505b5090506000805467ffffffffffffffff811115610a0c57610a0b612812565b5b604051908082528060200260200182016040528015610a3a5781602001602082028036833780820191505090505b5090506000805467ffffffffffffffff811115610a5a57610a59612812565b5b604051908082528060200260200182016040528015610a885781602001602082028036833780820191505090505b5090506000805467ffffffffffffffff811115610aa857610aa7612812565b5b604051908082528060200260200182016040528015610ad65781602001602082028036833780820191505090505b5090506000805467ffffffffffffffff811115610af657610af5612812565b5b604051908082528060200260200182016040528015610b245781602001602082028036833780820191505090505b5090506000805467ffffffffffffffff811115610b4457610b43612812565b5b604051908082528060200260200182016040528015610b725781602001602082028036833780820191505090505b50905060005b600054811015610dc85760005b8a51811015610db4578a8181518110610ba157610ba0612841565b5b602002602001015160036000848152602001908152602001600020600301541415610da1576003600083815260200190815260200160002060000154898b81518110610bf057610bef612841565b5b6020026020010181815250506003600083815260200190815260200160002060010154888b81518110610c2657610c25612841565b5b6020026020010181815250506003600083815260200190815260200160002060020154878b81518110610c5c57610c5b612841565b5b6020026020010181815250506003600083815260200190815260200160002060030154868b81518110610c9257610c91612841565b5b6020026020010181815250506003600083815260200190815260200160002060040154858b81518110610cc857610cc7612841565b5b6020026020010181815250506003600083815260200190815260200160002060050154848b81518110610cfe57610cfd612841565b5b6020026020010181815250506003600083815260200190815260200160002060060160009054906101000a900473ffffffffffffffffffffffffffffffffffffffff16838b81518110610d5457610d53612841565b5b602002602001019073ffffffffffffffffffffffffffffffffffffffff16908173ffffffffffffffffffffffffffffffffffffffff16815250508980610d999061289f565b9a5050610db4565b8080610dac9061289f565b915050610b85565b508080610dc09061289f565b915050610b78565b50868686868686869f509f509f509f509f509f509f50505050505050505050919395979092949650565b606080606080606080600060015467ffffffffffffffff811115610e1957610e18612812565b5b604051908082528060200260200182016040528015610e475781602001602082028036833780820191505090505b509050600060015467ffffffffffffffff811115610e6857610e67612812565b5b604051908082528060200260200182016040528015610e965781602001602082028036833780820191505090505b509050600060015467ffffffffffffffff811115610eb757610eb6612812565b5b604051908082528060200260200182016040528015610ee55781602001602082028036833780820191505090505b509050600060015467ffffffffffffffff811115610f0657610f05612812565b5b604051908082528060200260200182016040528015610f345781602001602082028036833780820191505090505b509050600060015467ffffffffffffffff811115610f5557610f54612812565b5b604051908082528060200260200182016040528015610f835781602001602082028036833780820191505090505b509050600060015467ffffffffffffffff811115610fa457610fa3612812565b5b604051908082528060200260200182016040528015610fd25781602001602082028036833780820191505090505b50905060005b60015481101561113957600460008281526020019081526020016000206000015487828151811061100c5761100b612841565b5b602002602001018181525050600460008281526020019081526020016000206001015486828151811061104257611041612841565b5b602002602001018181525050600460008281526020019081526020016000206002015485828151811061107857611077612841565b5b60200260200101818152505060046000828152602001908152602001600020600301548482815181106110ae576110ad612841565b5b60200260200101818152505060046000828152602001908152602001600020600401548382815181106110e4576110e3612841565b5b602002602001018181525050600460008281526020019081526020016000206005015482828151811061111a57611119612841565b5b60200260200101818152505080806111319061289f565b915050610fd8565b508585858585859b509b509b509b509b509b50505050505050909192939495565b6000816008600085815260200190815260200160002054146111b1576040517f08c379a00000000000000000000000000000000000000000000000000000000081526004016111a89061296b565b60405180910390fd5b81600860008581526020019081526020016000205414156111d557600190506111da565b600090505b92915050565b600960205281600052604060002081815481106111fc57600080fd5b90600052602060002001600091509150505481565b611219611c31565b73ffffffffffffffffffffffffffffffffffffffff163373ffffffffffffffffffffffffffffffffffffffff1614611286576040517f08c379a000000000000000000000000000000000000000000000000000000000815260040161127d906129d7565b60405180910390fd5b6040518060e0016040528060005481526020018781526020018681526020018581526020018481526020018381526020018273ffffffffffffffffffffffffffffffffffffffff168152506003600080548152602001908152602001600020600082015181600001556020820151816001015560408201518160020155606082015181600301556080820151816004015560a0820151816005015560c08201518160060160006101000a81548173ffffffffffffffffffffffffffffffffffffffff021916908373ffffffffffffffffffffffffffffffffffffffff16021790555090505060008081548092919061137d9061289f565b9190505550600b600088815260200190815260200160002084908060018154018082558091505060019003906000526020600020016000909190919091505550505050505050565b600960008281526020019081526020016000208290806001815401808255809150506001900390600052602060002001600090919091909150558060076000848152602001908152602001600020819055505050565b60608060608060608060006009600089815260200190815260200160002080548060200260200160405190810160405280929190818152602001828054801561148357602002820191906000526020600020905b81548152602001906001019080831161146f575b5050505050905060008060015467ffffffffffffffff8111156114a9576114a8612812565b5b6040519080825280602002602001820160405280156114d75781602001602082028036833780820191505090505b509050600060015467ffffffffffffffff8111156114f8576114f7612812565b5b6040519080825280602002602001820160405280156115265781602001602082028036833780820191505090505b509050600060015467ffffffffffffffff81111561154757611546612812565b5b6040519080825280602002602001820160405280156115755781602001602082028036833780820191505090505b509050600060015467ffffffffffffffff81111561159657611595612812565b5b6040519080825280602002602001820160405280156115c45781602001602082028036833780820191505090505b509050600060015467ffffffffffffffff8111156115e5576115e4612812565b5b6040519080825280602002602001820160405280156116135781602001602082028036833780820191505090505b509050600060015467ffffffffffffffff81111561163457611633612812565b5b6040519080825280602002602001820160405280156116625781602001602082028036833780820191505090505b50905060005b6001548110156118305760005b895181101561181c5789818151811061169157611690612841565b5b602002602001015160046000848152602001908152602001600020600101541415611809576004600083815260200190815260200160002060000154888a815181106116e0576116df612841565b5b6020026020010181815250506004600083815260200190815260200160002060010154878a8151811061171657611715612841565b5b6020026020010181815250506004600083815260200190815260200160002060020154868a8151811061174c5761174b612841565b5b6020026020010181815250506004600083815260200190815260200160002060030154858a8151811061178257611781612841565b5b6020026020010181815250506004600083815260200190815260200160002060040154848a815181106117b8576117b7612841565b5b6020026020010181815250506004600083815260200190815260200160002060050154838a815181106117ee576117ed612841565b5b60200260200101818152505088806118059061289f565b9950505b80806118149061289f565b915050611675565b5080806118289061289f565b915050611668565b508585858585859d509d509d509d509d509d50505050505050505091939550919395565b61185c611c31565b73ffffffffffffffffffffffffffffffffffffffff163373ffffffffffffffffffffffffffffffffffffffff16146118c9576040517f08c379a00000000000000000000000000000000000000000000000000000000081526004016118c0906129d7565b60405180910390fd5b600060056000858152602001908152602001600020541115611920576040517f08c379a000000000000000000000000000000000000000000000000000000000815260040161191790612a43565b60405180910390fd5b6040518060c0016040528060015481526020018481526020018581526020018381526020018281526020017f417661696c61626c650000000000000000000000000000000000000000000000815250600460006001548152602001908152602001600020600082015181600001556020820151816001015560408201518160020155606082015181600301556080820151816004015560a082015181600501559050506001546005600085815260200190815260200160002081905550600160008154809291906119f09061289f565b91905055508460066000858152602001908152602001600020819055505050505050565b600a6020528160005260406000208181548110611a3057600080fd5b90600052602060002001600091509150505481565b60608060606000600a6000868152602001908152602001600020805480602002602001604051908101604052809291908181526020018280548015611aa957602002820191906000526020600020905b815481526020019060010190808311611a95575b505050505090506000815167ffffffffffffffff811115611acd57611acc612812565b5b604051908082528060200260200182016040528015611afb5781602001602082028036833780820191505090505b5090506000825167ffffffffffffffff811115611b1b57611b1a612812565b5b604051908082528060200260200182016040528015611b495781602001602082028036833780820191505090505b50905060005b8351811015611c055760076000858381518110611b6f57611b6e612841565b5b6020026020010151815260200190815260200160002054838281518110611b9957611b98612841565b5b60200260200101818152505060066000858381518110611bbc57611bbb612841565b5b6020026020010151815260200190815260200160002054828281518110611be657611be5612841565b5b6020026020010181815250508080611bfd9061289f565b915050611b4f565b508282829550955095505050509193909250565b60076020528060005260406000206000915090505481565b6000600260009054906101000a900473ffffffffffffffffffffffffffffffffffffffff16905090565b60066020528060005260406000206000915090505481565b60046020528060005260406000206000915090508060000154908060010154908060020154908060030154908060040154908060050154905086565b60086020528060005260406000206000915090505481565b60036020528060005260406000206000915090508060000154908060010154908060020154908060030154908060040154908060050154908060060160009054906101000a900473ffffffffffffffffffffffffffffffffffffffff16905087565b600b6020528160005260406000208181548110611d4557600080fd5b90600052602060002001600091509150505481565b60008060008060009050600080600093505b600054841015611daf578660036000868152602001908152602001600020600301541415611d9c57839150600190505b8380611da79061289f565b945050611d6c565b6001151581151514611df6576040517f08c379a0000000000000000000000000000000000000000000000000000000008152600401611ded90612ad5565b60405180910390fd5b3373ffffffffffffffffffffffffffffffffffffffff166003600084815260200190815260200160002060060160009054906101000a900473ffffffffffffffffffffffffffffffffffffffff1673ffffffffffffffffffffffffffffffffffffffff1614611e9a576040517f08c379a0000000000000000000000000000000000000000000000000000000008152600401611e9190612b41565b60405180910390fd5b60006001541115611eea57600094505b600154851015611ee9578860046000878152602001908152602001600020600101541415611ed6578492505b8480611ee19061289f565b955050611eaa565b5b600460008481526020019081526020016000206005015495507f417661696c61626c650000000000000000000000000000000000000000000000861415611fb9577f4e410000000000000000000000000000000000000000000000000000000000006004600085815260200190815260200160002060050181905550600a600089815260200190815260200160002089908060018154018082558091505060019003906000526020600020016000909190919091505587600860008b8152602001908152602001600020819055505b505050505050505050565b600081519050919050565b600082825260208201905092915050565b6000819050602082019050919050565b6000819050919050565b61200381611ff0565b82525050565b60006120158383611ffa565b60208301905092915050565b6000602082019050919050565b600061203982611fc4565b6120438185611fcf565b935061204e83611fe0565b8060005b8381101561207f5781516120668882612009565b975061207183612021565b925050600181019050612052565b5085935050505092915050565b600081519050919050565b600082825260208201905092915050565b6000819050602082019050919050565b6000819050919050565b6120cb816120b8565b82525050565b60006120dd83836120c2565b60208301905092915050565b6000602082019050919050565b60006121018261208c565b61210b8185612097565b9350612116836120a8565b8060005b8381101561214757815161212e88826120d1565b9750612139836120e9565b92505060018101905061211a565b5085935050505092915050565b600081519050919050565b600082825260208201905092915050565b6000819050602082019050919050565b600073ffffffffffffffffffffffffffffffffffffffff82169050919050565b60006121ab82612180565b9050919050565b6121bb816121a0565b82525050565b60006121cd83836121b2565b60208301905092915050565b6000602082019050919050565b60006121f182612154565b6121fb818561215f565b935061220683612170565b8060005b8381101561223757815161221e88826121c1565b9750612229836121d9565b92505060018101905061220a565b5085935050505092915050565b600060e082019050818103600083015261225e818a61202e565b9050818103602083015261227281896120f6565b9050818103604083015261228681886120f6565b9050818103606083015261229a81876120f6565b905081810360808301526122ae818661202e565b905081810360a08301526122c281856120f6565b905081810360c08301526122d681846121e6565b905098975050505050505050565b600080fd5b6122f2816120b8565b81146122fd57600080fd5b50565b60008135905061230f816122e9565b92915050565b60006020828403121561232b5761232a6122e4565b5b600061233984828501612300565b91505092915050565b61234b81611ff0565b82525050565b60006020820190506123666000830184612342565b92915050565b600060c0820190508181036000830152612386818961202e565b9050818103602083015261239a81886120f6565b905081810360408301526123ae81876120f6565b905081810360608301526123c281866120f6565b905081810360808301526123d6818561202e565b905081810360a08301526123ea81846120f6565b9050979650505050505050565b6000806040838503121561240e5761240d6122e4565b5b600061241c85828601612300565b925050602061242d85828601612300565b9150509250929050565b60008115159050919050565b61244c81612437565b82525050565b60006020820190506124676000830184612443565b92915050565b61247681611ff0565b811461248157600080fd5b50565b6000813590506124938161246d565b92915050565b600080604083850312156124b0576124af6122e4565b5b60006124be85828601612300565b92505060206124cf85828601612484565b9150509250929050565b6124e2816120b8565b82525050565b60006020820190506124fd60008301846124d9565b92915050565b61250c816121a0565b811461251757600080fd5b50565b60008135905061252981612503565b92915050565b600080600080600080600060e0888a03121561254e5761254d6122e4565b5b600061255c8a828b01612300565b975050602061256d8a828b01612300565b965050604061257e8a828b01612300565b955050606061258f8a828b01612300565b94505060806125a08a828b01612484565b93505060a06125b18a828b01612300565b92505060c06125c28a828b0161251a565b91505092959891949750929550565b600080600080600060a086880312156125ed576125ec6122e4565b5b60006125fb88828901612300565b955050602061260c88828901612300565b945050604061261d88828901612300565b935050606061262e88828901612300565b925050608061263f88828901612484565b9150509295509295909350565b6000606082019050818103600083015261266681866120f6565b9050818103602083015261267a81856120f6565b9050818103604083015261268e81846120f6565b9050949350505050565b6126a1816121a0565b82525050565b60006020820190506126bc6000830184612698565b92915050565b6000602082840312156126d8576126d76122e4565b5b60006126e684828501612484565b91505092915050565b600060c0820190506127046000830189612342565b61271160208301886124d9565b61271e60408301876124d9565b61272b60608301866124d9565b6127386080830185612342565b61274560a08301846124d9565b979650505050505050565b600060e082019050612765600083018a612342565b61277260208301896124d9565b61277f60408301886124d9565b61278c60608301876124d9565b6127996080830186612342565b6127a660a08301856124d9565b6127b360c0830184612698565b98975050505050505050565b6000806000606084860312156127d8576127d76122e4565b5b60006127e686828701612300565b93505060206127f786828701612300565b925050604061280886828701612300565b9150509250925092565b7f4e487b7100000000000000000000000000000000000000000000000000000000600052604160045260246000fd5b7f4e487b7100000000000000000000000000000000000000000000000000000000600052603260045260246000fd5b7f4e487b7100000000000000000000000000000000000000000000000000000000600052601160045260246000fd5b60006128aa82611ff0565b91507fffffffffffffffffffffffffffffffffffffffffffffffffffffffffffffffff8214156128dd576128dc612870565b5b600182019050919050565b600082825260208201905092915050565b7f496e76616c69642053657269616c204e756d626572204f7220436f6e73756d6560008201527f7220436f64650000000000000000000000000000000000000000000000000000602082015250565b60006129556026836128e8565b9150612960826128f9565b604082019050919050565b6000602082019050818103600083015261298481612948565b9050919050565b7f57726f6e67204163636f756e742073656c656374656400000000000000000000600082015250565b60006129c16016836128e8565b91506129cc8261298b565b602082019050919050565b600060208201905081810360008301526129f0816129b4565b9050919050565b7f53657269616c206e756d62657220616c72656164792065786973747300000000600082015250565b6000612a2d601c836128e8565b9150612a38826129f7565b602082019050919050565b60006020820190508181036000830152612a5c81612a20565b9050919050565b7f53656c6c657220646f6573206e6f7420657869737420696e207468652065636f60008201527f73797374656d0000000000000000000000000000000000000000000000000000602082015250565b6000612abf6026836128e8565b9150612aca82612a63565b604082019050919050565b60006020820190508181036000830152612aee81612ab2565b9050919050565b7f57726f6e67204163636f756e742053656c656374656400000000000000000000600082015250565b6000612b2b6016836128e8565b9150612b3682612af5565b602082019050919050565b60006020820190508181036000830152612b5a81612b1e565b905091905056fea2646970667358221220973453c5340963f737187a89da78bcebcc1085c491b110d973be0e6126c6508964736f6c634300080c0033",
  "immutableReferences": {},
  "source": "// SPDX-License-Identifier: MIT\r\npragma solidity ^0.8.12;\r\n\r\ncontract product {\r\n\r\n    uint256 sellerCount;\r\n    uint256 productCount;\r\n    address owner;\r\n    constructor(){\r\n        owner = msg.sender;\r\n    }\r\n\r\n    struct seller{\r\n        uint256 sellerId; // automated\r\n        bytes32 sellerName;\r\n        bytes32 sellerBrand;\r\n        bytes32 sellerCode; // Password (GST(5)+Phone(4))\r\n        uint256 sellerNum;\r\n        bytes32 sellerManager;\r\n        address sellerAddress;\r\n    }\r\n    mapping(uint=>seller) public sellers; // 0 -> sellers details\r\n\r\n    struct productItem{\r\n        uint256 productId;\r\n        bytes32 productSN;\r\n        bytes32 productName;\r\n        bytes32 productBrand;\r\n        uint256 productPrice;\r\n        bytes32 productStatus;\r\n    }\r\n\r\n    mapping(uint256=>productItem) public productItems; //product id  -> details\r\n    mapping(bytes32=>uint256) public productMap; //\r\n    mapping(bytes32=>bytes32) public productsManufactured; //product Sn -> mfr\r\n    mapping(bytes32=>bytes32) public productsForSale; //productSn -> Seller Code\r\n    mapping(bytes32=>bytes32) public productsSold; //productSn-> Consumer Code\r\n    mapping(bytes32=>bytes32[]) public productsWithSeller;\r\n    mapping(bytes32=>bytes32[]) public productsWithConsumer;\r\n    mapping(bytes32=>bytes32[]) public sellersWithManufacturer;\r\n\r\n\r\n    function viewOwner() public view returns(address){\r\n        return owner;\r\n    }\r\n    //SELLER SECTION\r\n\r\n    function addSeller(bytes32 _manufacturerId, bytes32 _sellerName, bytes32 _sellerBrand, bytes32 _sellerCode,\r\n    uint256 _sellerNum, bytes32 _sellerManager, address _sellerAddress) public{\r\n        require(msg.sender == viewOwner(), \"Wrong Account selected\");\r\n        sellers[sellerCount] = seller(sellerCount, _sellerName, _sellerBrand, _sellerCode,\r\n        _sellerNum, _sellerManager, _sellerAddress);\r\n        sellerCount++;\r\n\r\n        sellersWithManufacturer[_manufacturerId].push(_sellerCode);\r\n    }\r\n\r\n\r\n    function viewSellers () public view returns(uint256[] memory, bytes32[] memory, bytes32[] memory, bytes32[] memory, uint256[] memory, bytes32[] memory, address[] memory) {\r\n        uint256[] memory ids = new uint256[](sellerCount);\r\n        bytes32[] memory snames = new bytes32[](sellerCount);\r\n        bytes32[] memory sbrands = new bytes32[](sellerCount);\r\n        bytes32[] memory scodes = new bytes32[](sellerCount);\r\n        uint256[] memory snums = new uint256[](sellerCount);\r\n        bytes32[] memory smanagers = new bytes32[](sellerCount);\r\n        address[] memory saddress = new address[](sellerCount);\r\n        \r\n        for(uint i=0; i<sellerCount; i++){\r\n            ids[i] = sellers[i].sellerId;\r\n            snames[i] = sellers[i].sellerName;\r\n            sbrands[i] = sellers[i].sellerBrand;\r\n            scodes[i] = sellers[i].sellerCode;\r\n            snums[i] = sellers[i].sellerNum;\r\n            smanagers[i] = sellers[i].sellerManager;\r\n            saddress[i] = sellers[i].sellerAddress;\r\n        }\r\n        return(ids, snames, sbrands, scodes, snums, smanagers, saddress);\r\n    }\r\n\r\n    //PRODUCT SECTION\r\n\r\n    function addProduct(bytes32 _manufactuerID, bytes32 _productName, bytes32 _productSN, bytes32 _productBrand,\r\n    uint256 _productPrice) public{\r\n        require(msg.sender == viewOwner(), \"Wrong Account selected\");\r\n        require(productMap[_productSN] <= 0, \"Serial number already exists\");\r\n        productItems[productCount] = productItem(productCount, _productSN, _productName, _productBrand,\r\n        _productPrice, \"Available\");\r\n        productMap[_productSN] = productCount;\r\n        productCount++;\r\n        productsManufactured[_productSN] = _manufactuerID;\r\n    }\r\n\r\n\r\n    function viewProductItems () public view returns(uint256[] memory, bytes32[] memory, bytes32[] memory, bytes32[] memory, uint256[] memory, bytes32[] memory) {\r\n        uint256[] memory pids = new uint256[](productCount);\r\n        bytes32[] memory pSNs = new bytes32[](productCount);\r\n        bytes32[] memory pnames = new bytes32[](productCount);\r\n        bytes32[] memory pbrands = new bytes32[](productCount);\r\n        uint256[] memory pprices = new uint256[](productCount);\r\n        bytes32[] memory pstatus = new bytes32[](productCount);\r\n        \r\n        for(uint i=0; i<productCount; i++){\r\n            pids[i] = productItems[i].productId;\r\n            pSNs[i] = productItems[i].productSN;\r\n            pnames[i] = productItems[i].productName;\r\n            pbrands[i] = productItems[i].productBrand;\r\n            pprices[i] = productItems[i].productPrice;\r\n            pstatus[i] = productItems[i].productStatus;\r\n        }\r\n        return(pids, pSNs, pnames, pbrands, pprices, pstatus);\r\n    }\r\n\r\n    //SELL Product\r\n\r\n    function manufacturerSellProduct(bytes32 _productSN, bytes32 _sellerCode) public{\r\n        productsWithSeller[_sellerCode].push(_productSN);\r\n        productsForSale[_productSN] = _sellerCode;\r\n\r\n    }\r\n\r\n    function sellerSellProduct(bytes32 _productSN, bytes32 _consumerCode, bytes32 _sellerCode) public{   \r\n        bytes32 pStatus;\r\n        uint256 i;\r\n        uint256 a;\r\n        uint256 j = 0;\r\n        uint256 b = 0;\r\n        bool sellerFound = false;\r\n        for (a = 0; a < sellerCount; a++) {\r\n            if (sellers[a].sellerCode == _sellerCode) {\r\n                b = a;\r\n                sellerFound = true;\r\n            }\r\n        }\r\n        require(sellerFound == true, \"Seller does not exist in the ecosystem\");\r\n        require(sellers[b].sellerAddress == msg.sender, \"Wrong Account Selected\");\r\n\r\n        if(productCount>0) {\r\n            for(i=0;i<productCount;i++) {\r\n                if(productItems[i].productSN == _productSN) {\r\n                    j=i;\r\n                }\r\n            }\r\n        }\r\n\r\n        pStatus = productItems[j].productStatus;\r\n        if(pStatus == \"Available\") {\r\n            productItems[j].productStatus = \"NA\";\r\n            productsWithConsumer[_consumerCode].push(_productSN);\r\n            productsSold[_productSN] = _consumerCode;\r\n        }\r\n\r\n\r\n    }\r\n\r\n\r\n    function queryProductsList(bytes32 _sellerCode) public view returns(uint256[] memory, bytes32[] memory, bytes32[] memory, bytes32[] memory, uint256[] memory, bytes32[] memory){\r\n        bytes32[] memory productSNs = productsWithSeller[_sellerCode];\r\n        uint256 k=0;\r\n\r\n        uint256[] memory pids = new uint256[](productCount);\r\n        bytes32[] memory pSNs = new bytes32[](productCount);\r\n        bytes32[] memory pnames = new bytes32[](productCount);\r\n        bytes32[] memory pbrands = new bytes32[](productCount);\r\n        uint256[] memory pprices = new uint256[](productCount);\r\n        bytes32[] memory pstatus = new bytes32[](productCount);\r\n\r\n        \r\n        for(uint i=0; i<productCount; i++){\r\n            for(uint j=0; j<productSNs.length; j++){\r\n                if(productItems[i].productSN==productSNs[j]){\r\n                    pids[k] = productItems[i].productId;\r\n                    pSNs[k] = productItems[i].productSN;\r\n                    pnames[k] = productItems[i].productName;\r\n                    pbrands[k] = productItems[i].productBrand;\r\n                    pprices[k] = productItems[i].productPrice;\r\n                    pstatus[k] = productItems[i].productStatus;\r\n                    k++;\r\n                }\r\n            }\r\n        }\r\n        return(pids, pSNs, pnames, pbrands, pprices, pstatus);\r\n    }\r\n\r\n    function querySellersList (bytes32 _manufacturerCode) public view returns(uint256[] memory, bytes32[] memory, bytes32[] memory, bytes32[] memory, uint256[] memory, bytes32[] memory, address[] memory) {\r\n        bytes32[] memory sellerCodes = sellersWithManufacturer[_manufacturerCode];\r\n        uint256 k=0;\r\n        uint256[] memory ids = new uint256[](sellerCount);\r\n        bytes32[] memory snames = new bytes32[](sellerCount);\r\n        bytes32[] memory sbrands = new bytes32[](sellerCount);\r\n        bytes32[] memory scodes = new bytes32[](sellerCount);\r\n        uint256[] memory snums = new uint256[](sellerCount);\r\n        bytes32[] memory smanagers = new bytes32[](sellerCount);\r\n        address[] memory saddress = new address[](sellerCount);\r\n        \r\n        for(uint i=0; i<sellerCount; i++){\r\n            for(uint j=0; j<sellerCodes.length; j++){\r\n                if(sellers[i].sellerCode==sellerCodes[j]){\r\n                    ids[k] = sellers[i].sellerId;\r\n                    snames[k] = sellers[i].sellerName;\r\n                    sbrands[k] = sellers[i].sellerBrand;\r\n                    scodes[k] = sellers[i].sellerCode;\r\n                    snums[k] = sellers[i].sellerNum;\r\n                    smanagers[k] = sellers[i].sellerManager;\r\n                    saddress[k] = sellers[i].sellerAddress;\r\n                    k++;\r\n                    break;\r\n               }\r\n            }\r\n        }\r\n\r\n        return(ids, snames, sbrands, scodes, snums, smanagers, saddress);\r\n    }\r\n\r\n    function getPurchaseHistory(bytes32 _consumerCode) public view returns (bytes32[] memory, bytes32[] memory, bytes32[] memory){\r\n        bytes32[] memory productSNs = productsWithConsumer[_consumerCode];\r\n        bytes32[] memory sellerCodes = new bytes32[](productSNs.length);\r\n        bytes32[] memory manufacturerCodes = new bytes32[](productSNs.length);\r\n        for(uint i=0; i<productSNs.length; i++){\r\n            sellerCodes[i] = productsForSale[productSNs[i]];\r\n            manufacturerCodes[i] = productsManufactured[productSNs[i]];\r\n        }\r\n        return (productSNs, sellerCodes, manufacturerCodes);\r\n    }\r\n\r\n    //Verify\r\n    event printVerify(bytes32 _productSN,string message, bytes32 _consumerCode);\r\n\r\n    function verifyProduct(bytes32 _productSN, bytes32 _consumerCode) public view returns(bool){\r\n        require(productsSold[_productSN] == _consumerCode, \"Invalid Serial Number Or Consumer Code\");\r\n        if (productsSold[_productSN] == _consumerCode) {\r\n            // emit printVerify(_productSN, \"is Verified by \", _consumerCode);\r\n            return true;\r\n        } else {\r\n            return false;\r\n        }\r\n    }\r\n}",
  "sourcePath": "D:\\College\\MAJOR II\\Major-II\\contracts\\product.sol",
  "compiler": {
    "name": "solc",
    "version": "0.8.12+commit.f00d7308.Emscripten.clang"
  },
  "schemaVersion": "3.4.10",
  "updatedAt": "2023-04-12T14:40:34.022Z",
  "devdoc": {
    "kind": "dev",
    "methods": {},
    "version": 1
  },
  "userdoc": {
    "kind": "user",
    "methods": {},
    "version": 1
  }
}