{
  "contractName": "product2",
  "abi": [
    {
      "inputs": [],
      "stateMutability": "nonpayable",
      "type": "constructor"
    },
    {
      "anonymous": false,
      "inputs": [
        {
          "indexed": false,
          "internalType": "string",
          "name": "_productSN",
          "type": "string"
        },
        {
          "indexed": false,
          "internalType": "string",
          "name": "message",
          "type": "string"
        },
        {
          "indexed": false,
          "internalType": "string",
          "name": "_consumerCode",
          "type": "string"
        }
      ],
      "name": "printVerify",
      "type": "event"
    },
    {
      "inputs": [
        {
          "internalType": "uint256",
          "name": "",
          "type": "uint256"
        }
      ],
      "name": "productItems",
      "outputs": [
        {
          "internalType": "uint256",
          "name": "productId",
          "type": "uint256"
        },
        {
          "internalType": "string",
          "name": "productSN",
          "type": "string"
        },
        {
          "internalType": "string",
          "name": "productName",
          "type": "string"
        },
        {
          "internalType": "string",
          "name": "productBrand",
          "type": "string"
        },
        {
          "internalType": "uint256",
          "name": "productPrice",
          "type": "uint256"
        },
        {
          "internalType": "string",
          "name": "productStatus",
          "type": "string"
        }
      ],
      "stateMutability": "view",
      "type": "function"
    },
    {
      "inputs": [
        {
          "internalType": "string",
          "name": "",
          "type": "string"
        }
      ],
      "name": "productMap",
      "outputs": [
        {
          "internalType": "uint256",
          "name": "",
          "type": "uint256"
        }
      ],
      "stateMutability": "view",
      "type": "function"
    },
    {
      "inputs": [
        {
          "internalType": "string",
          "name": "",
          "type": "string"
        }
      ],
      "name": "productsForSale",
      "outputs": [
        {
          "internalType": "string",
          "name": "",
          "type": "string"
        }
      ],
      "stateMutability": "view",
      "type": "function"
    },
    {
      "inputs": [
        {
          "internalType": "string",
          "name": "",
          "type": "string"
        }
      ],
      "name": "productsManufactured",
      "outputs": [
        {
          "internalType": "string",
          "name": "",
          "type": "string"
        }
      ],
      "stateMutability": "view",
      "type": "function"
    },
    {
      "inputs": [
        {
          "internalType": "string",
          "name": "",
          "type": "string"
        }
      ],
      "name": "productsSold",
      "outputs": [
        {
          "internalType": "string",
          "name": "",
          "type": "string"
        }
      ],
      "stateMutability": "view",
      "type": "function"
    },
    {
      "inputs": [
        {
          "internalType": "string",
          "name": "",
          "type": "string"
        },
        {
          "internalType": "uint256",
          "name": "",
          "type": "uint256"
        }
      ],
      "name": "productsWithConsumer",
      "outputs": [
        {
          "internalType": "string",
          "name": "",
          "type": "string"
        }
      ],
      "stateMutability": "view",
      "type": "function"
    },
    {
      "inputs": [
        {
          "internalType": "string",
          "name": "",
          "type": "string"
        },
        {
          "internalType": "uint256",
          "name": "",
          "type": "uint256"
        }
      ],
      "name": "productsWithSeller",
      "outputs": [
        {
          "internalType": "string",
          "name": "",
          "type": "string"
        }
      ],
      "stateMutability": "view",
      "type": "function"
    },
    {
      "inputs": [
        {
          "internalType": "uint256",
          "name": "",
          "type": "uint256"
        }
      ],
      "name": "sellers",
      "outputs": [
        {
          "internalType": "uint256",
          "name": "sellerId",
          "type": "uint256"
        },
        {
          "internalType": "string",
          "name": "sellerName",
          "type": "string"
        },
        {
          "internalType": "string",
          "name": "sellerBrand",
          "type": "string"
        },
        {
          "internalType": "string",
          "name": "sellerCode",
          "type": "string"
        },
        {
          "internalType": "uint256",
          "name": "sellerNum",
          "type": "uint256"
        },
        {
          "internalType": "address",
          "name": "sellerManager",
          "type": "address"
        },
        {
          "internalType": "address",
          "name": "sellerAddress",
          "type": "address"
        }
      ],
      "stateMutability": "view",
      "type": "function"
    },
    {
      "inputs": [
        {
          "internalType": "string",
          "name": "",
          "type": "string"
        },
        {
          "internalType": "uint256",
          "name": "",
          "type": "uint256"
        }
      ],
      "name": "sellersWithManufacturer",
      "outputs": [
        {
          "internalType": "string",
          "name": "",
          "type": "string"
        }
      ],
      "stateMutability": "view",
      "type": "function"
    },
    {
      "inputs": [],
      "name": "viewOwner",
      "outputs": [
        {
          "internalType": "address",
          "name": "",
          "type": "address"
        }
      ],
      "stateMutability": "view",
      "type": "function"
    },
    {
      "inputs": [
        {
          "internalType": "string",
          "name": "_manufacturerId",
          "type": "string"
        },
        {
          "internalType": "string",
          "name": "_sellerName",
          "type": "string"
        },
        {
          "internalType": "string",
          "name": "_sellerBrand",
          "type": "string"
        },
        {
          "internalType": "string",
          "name": "_sellerCode",
          "type": "string"
        },
        {
          "internalType": "uint256",
          "name": "_sellerNum",
          "type": "uint256"
        },
        {
          "internalType": "address",
          "name": "_sellerManager",
          "type": "address"
        },
        {
          "internalType": "address",
          "name": "_sellerAddress",
          "type": "address"
        }
      ],
      "name": "addSeller",
      "outputs": [],
      "stateMutability": "nonpayable",
      "type": "function"
    },
    {
      "inputs": [],
      "name": "viewSellers",
      "outputs": [
        {
          "internalType": "uint256[]",
          "name": "",
          "type": "uint256[]"
        },
        {
          "internalType": "string[]",
          "name": "",
          "type": "string[]"
        },
        {
          "internalType": "string[]",
          "name": "",
          "type": "string[]"
        },
        {
          "internalType": "string[]",
          "name": "",
          "type": "string[]"
        },
        {
          "internalType": "uint256[]",
          "name": "",
          "type": "uint256[]"
        },
        {
          "internalType": "address[]",
          "name": "",
          "type": "address[]"
        },
        {
          "internalType": "address[]",
          "name": "",
          "type": "address[]"
        }
      ],
      "stateMutability": "view",
      "type": "function"
    },
    {
      "inputs": [
        {
          "internalType": "string",
          "name": "_manufactuerID",
          "type": "string"
        },
        {
          "internalType": "string",
          "name": "_productName",
          "type": "string"
        },
        {
          "internalType": "string",
          "name": "_productSN",
          "type": "string"
        },
        {
          "internalType": "string",
          "name": "_productBrand",
          "type": "string"
        },
        {
          "internalType": "uint256",
          "name": "_productPrice",
          "type": "uint256"
        }
      ],
      "name": "addProduct",
      "outputs": [],
      "stateMutability": "nonpayable",
      "type": "function"
    },
    {
      "inputs": [],
      "name": "viewProductItems",
      "outputs": [
        {
          "internalType": "uint256[]",
          "name": "",
          "type": "uint256[]"
        },
        {
          "internalType": "string[]",
          "name": "",
          "type": "string[]"
        },
        {
          "internalType": "string[]",
          "name": "",
          "type": "string[]"
        },
        {
          "internalType": "string[]",
          "name": "",
          "type": "string[]"
        },
        {
          "internalType": "uint256[]",
          "name": "",
          "type": "uint256[]"
        },
        {
          "internalType": "string[]",
          "name": "",
          "type": "string[]"
        }
      ],
      "stateMutability": "view",
      "type": "function"
    },
    {
      "inputs": [
        {
          "internalType": "string",
          "name": "_productSN",
          "type": "string"
        },
        {
          "internalType": "string",
          "name": "_sellerCode",
          "type": "string"
        }
      ],
      "name": "manufacturerSellProduct",
      "outputs": [],
      "stateMutability": "nonpayable",
      "type": "function"
    },
    {
      "inputs": [
        {
          "internalType": "string",
          "name": "_productSN",
          "type": "string"
        },
        {
          "internalType": "string",
          "name": "_consumerCode",
          "type": "string"
        },
        {
          "internalType": "string",
          "name": "_sellerCode",
          "type": "string"
        }
      ],
      "name": "sellerSellProduct",
      "outputs": [],
      "stateMutability": "nonpayable",
      "type": "function"
    },
    {
      "inputs": [
        {
          "internalType": "string",
          "name": "_sellerCode",
          "type": "string"
        }
      ],
      "name": "queryProductsList",
      "outputs": [
        {
          "internalType": "uint256[]",
          "name": "",
          "type": "uint256[]"
        },
        {
          "internalType": "string[]",
          "name": "",
          "type": "string[]"
        },
        {
          "internalType": "string[]",
          "name": "",
          "type": "string[]"
        },
        {
          "internalType": "string[]",
          "name": "",
          "type": "string[]"
        },
        {
          "internalType": "uint256[]",
          "name": "",
          "type": "uint256[]"
        },
        {
          "internalType": "string[]",
          "name": "",
          "type": "string[]"
        }
      ],
      "stateMutability": "view",
      "type": "function"
    },
    {
      "inputs": [
        {
          "internalType": "string",
          "name": "_manufacturerCode",
          "type": "string"
        }
      ],
      "name": "querySellersList",
      "outputs": [
        {
          "internalType": "uint256[]",
          "name": "",
          "type": "uint256[]"
        },
        {
          "internalType": "string[]",
          "name": "",
          "type": "string[]"
        },
        {
          "internalType": "string[]",
          "name": "",
          "type": "string[]"
        },
        {
          "internalType": "string[]",
          "name": "",
          "type": "string[]"
        },
        {
          "internalType": "uint256[]",
          "name": "",
          "type": "uint256[]"
        },
        {
          "internalType": "address[]",
          "name": "",
          "type": "address[]"
        },
        {
          "internalType": "address[]",
          "name": "",
          "type": "address[]"
        }
      ],
      "stateMutability": "view",
      "type": "function"
    },
    {
      "inputs": [
        {
          "internalType": "string",
          "name": "_consumerCode",
          "type": "string"
        }
      ],
      "name": "getPurchaseHistory",
      "outputs": [
        {
          "internalType": "string[]",
          "name": "",
          "type": "string[]"
        },
        {
          "internalType": "string[]",
          "name": "",
          "type": "string[]"
        },
        {
          "internalType": "string[]",
          "name": "",
          "type": "string[]"
        }
      ],
      "stateMutability": "view",
      "type": "function"
    },
    {
      "inputs": [
        {
          "internalType": "string",
          "name": "_productSN",
          "type": "string"
        },
        {
          "internalType": "string",
          "name": "_consumerCode",
          "type": "string"
        }
      ],
      "name": "verifyProduct",
      "outputs": [
        {
          "internalType": "bool",
          "name": "",
          "type": "bool"
        }
      ],
      "stateMutability": "nonpayable",
      "type": "function"
    }
  ],
  "bytecode": "0x608060405234801561001057600080fd5b5033600260006101000a81548173ffffffffffffffffffffffffffffffffffffffff021916908373ffffffffffffffffffffffffffffffffffffffff160217905550614b9b806100616000396000f3fe608060405234801561001057600080fd5b506004361061012c5760003560e01c80636570fcd6116100ad578063bc677b4611610071578063bc677b46146103cd578063caaf2751146103eb578063cab2c51214610420578063cee26ed51461043c578063cf693e81146104725761012c565b80636570fcd6146102db5780637ea576bf1461030b57806380e345a01461033b5780639b030c1c1461036d5780639da8699b1461039d5761012c565b806325dfbfba116100f457806325dfbfba146101f9578063276d3897146102155780633c4c7ed91461024b57806351cb74ac1461027b578063531c5de5146102ab5761012c565b8063032f95e6146101315780630ad9761214610155578063129da4e51461018a5780631836bd4b146101ba57806320b1a935146101dd575b600080fd5b61013961048e565b60405161014c9796959493929190613d7d565b60405180910390f35b61016f600480360381019061016a9190613f66565b610abb565b60405161018196959493929190613faf565b60405180910390f35b6101a4600480360381019061019f9190614066565b61123f565b6040516101b1919061410c565b60405180910390f35b6101c261130e565b6040516101d496959493929190613faf565b60405180910390f35b6101f760048036038101906101f2919061415a565b6118a6565b005b610213600480360381019061020e919061426c565b611b04565b005b61022f600480360381019061022a9190613f66565b611d56565b6040516102429796959493929190613d7d565b60405180910390f35b61026560048036038101906102609190614066565b612574565b604051610272919061410c565b60405180910390f35b61029560048036038101906102909190614357565b612643565b6040516102a291906143ea565b60405180910390f35b6102c560048036038101906102c09190613f66565b612836565b6040516102d29190614414565b60405180910390f35b6102f560048036038101906102f09190613f66565b612864565b604051610302919061410c565b60405180910390f35b61032560048036038101906103209190614066565b61291a565b604051610332919061410c565b60405180910390f35b61035560048036038101906103509190613f66565b6129e9565b6040516103649392919061442f565b60405180910390f35b61038760048036038101906103829190613f66565b612d77565b604051610394919061410c565b60405180910390f35b6103b760048036038101906103b29190613f66565b612e2d565b6040516103c4919061410c565b60405180910390f35b6103d5612ee3565b6040516103e2919061448a565b60405180910390f35b610405600480360381019061040091906144a5565b612f0d565b604051610417969594939291906144d2565b60405180910390f35b61043a6004803603810190610435919061454f565b613169565b005b610456600480360381019061045191906144a5565b61366d565b60405161046997969594939291906145f6565b60405180910390f35b61048c60048036038101906104879190614357565b613887565b005b60608060608060608060606000805467ffffffffffffffff8111156104b6576104b5613e3b565b5b6040519080825280602002602001820160405280156104e45781602001602082028036833780820191505090505b5090506000805467ffffffffffffffff81111561050457610503613e3b565b5b60405190808252806020026020018201604052801561053757816020015b60608152602001906001900390816105225790505b5090506000805467ffffffffffffffff81111561055757610556613e3b565b5b60405190808252806020026020018201604052801561058a57816020015b60608152602001906001900390816105755790505b5090506000805467ffffffffffffffff8111156105aa576105a9613e3b565b5b6040519080825280602002602001820160405280156105dd57816020015b60608152602001906001900390816105c85790505b5090506000805467ffffffffffffffff8111156105fd576105fc613e3b565b5b60405190808252806020026020018201604052801561062b5781602001602082028036833780820191505090505b5090506000805467ffffffffffffffff81111561064b5761064a613e3b565b5b6040519080825280602002602001820160405280156106795781602001602082028036833780820191505090505b5090506000805467ffffffffffffffff81111561069957610698613e3b565b5b6040519080825280602002602001820160405280156106c75781602001602082028036833780820191505090505b50905060005b600054811015610a955760036000828152602001908152602001600020600001548882815181106107015761070061467a565b5b60200260200101818152505060036000828152602001908152602001600020600101805461072e906146d8565b80601f016020809104026020016040519081016040528092919081815260200182805461075a906146d8565b80156107a75780601f1061077c576101008083540402835291602001916107a7565b820191906000526020600020905b81548152906001019060200180831161078a57829003601f168201915b50505050508782815181106107bf576107be61467a565b5b60200260200101819052506003600082815260200190815260200160002060020180546107eb906146d8565b80601f0160208091040260200160405190810160405280929190818152602001828054610817906146d8565b80156108645780601f1061083957610100808354040283529160200191610864565b820191906000526020600020905b81548152906001019060200180831161084757829003601f168201915b505050505086828151811061087c5761087b61467a565b5b60200260200101819052506003600082815260200190815260200160002060030180546108a8906146d8565b80601f01602080910402602001604051908101604052809291908181526020018280546108d4906146d8565b80156109215780601f106108f657610100808354040283529160200191610921565b820191906000526020600020905b81548152906001019060200180831161090457829003601f168201915b50505050508582815181106109395761093861467a565b5b6020026020010181905250600360008281526020019081526020016000206004015484828151811061096e5761096d61467a565b5b6020026020010181815250506003600082815260200190815260200160002060050160009054906101000a900473ffffffffffffffffffffffffffffffffffffffff168382815181106109c4576109c361467a565b5b602002602001019073ffffffffffffffffffffffffffffffffffffffff16908173ffffffffffffffffffffffffffffffffffffffff16815250506003600082815260200190815260200160002060060160009054906101000a900473ffffffffffffffffffffffffffffffffffffffff16828281518110610a4857610a4761467a565b5b602002602001019073ffffffffffffffffffffffffffffffffffffffff16908173ffffffffffffffffffffffffffffffffffffffff16815250508080610a8d90614739565b9150506106cd565b50868686868686869d509d509d509d509d509d509d505050505050505090919293949596565b6060806060806060806000600988604051610ad691906147be565b9081526020016040518091039020805480602002602001604051908101604052809291908181526020016000905b82821015610bb0578382906000526020600020018054610b23906146d8565b80601f0160208091040260200160405190810160405280929190818152602001828054610b4f906146d8565b8015610b9c5780601f10610b7157610100808354040283529160200191610b9c565b820191906000526020600020905b815481529060010190602001808311610b7f57829003601f168201915b505050505081526020019060010190610b04565b50505050905060008060015467ffffffffffffffff811115610bd557610bd4613e3b565b5b604051908082528060200260200182016040528015610c035781602001602082028036833780820191505090505b509050600060015467ffffffffffffffff811115610c2457610c23613e3b565b5b604051908082528060200260200182016040528015610c5757816020015b6060815260200190600190039081610c425790505b509050600060015467ffffffffffffffff811115610c7857610c77613e3b565b5b604051908082528060200260200182016040528015610cab57816020015b6060815260200190600190039081610c965790505b509050600060015467ffffffffffffffff811115610ccc57610ccb613e3b565b5b604051908082528060200260200182016040528015610cff57816020015b6060815260200190600190039081610cea5790505b509050600060015467ffffffffffffffff811115610d2057610d1f613e3b565b5b604051908082528060200260200182016040528015610d4e5781602001602082028036833780820191505090505b509050600060015467ffffffffffffffff811115610d6f57610d6e613e3b565b5b604051908082528060200260200182016040528015610da257816020015b6060815260200190600190039081610d8d5790505b50905060005b60015481101561121b5760005b895181101561120757610e80600460008481526020019081526020016000206001018054610de2906146d8565b80601f0160208091040260200160405190810160405280929190818152602001828054610e0e906146d8565b8015610e5b5780601f10610e3057610100808354040283529160200191610e5b565b820191906000526020600020905b815481529060010190602001808311610e3e57829003601f168201915b50505050508b8381518110610e7357610e7261467a565b5b602002602001015161398b565b156111f4576004600083815260200190815260200160002060000154888a81518110610eaf57610eae61467a565b5b602002602001018181525050600460008381526020019081526020016000206001018054610edc906146d8565b80601f0160208091040260200160405190810160405280929190818152602001828054610f08906146d8565b8015610f555780601f10610f2a57610100808354040283529160200191610f55565b820191906000526020600020905b815481529060010190602001808311610f3857829003601f168201915b5050505050878a81518110610f6d57610f6c61467a565b5b6020026020010181905250600460008381526020019081526020016000206002018054610f99906146d8565b80601f0160208091040260200160405190810160405280929190818152602001828054610fc5906146d8565b80156110125780601f10610fe757610100808354040283529160200191611012565b820191906000526020600020905b815481529060010190602001808311610ff557829003601f168201915b5050505050868a8151811061102a5761102961467a565b5b6020026020010181905250600460008381526020019081526020016000206003018054611056906146d8565b80601f0160208091040260200160405190810160405280929190818152602001828054611082906146d8565b80156110cf5780601f106110a4576101008083540402835291602001916110cf565b820191906000526020600020905b8154815290600101906020018083116110b257829003601f168201915b5050505050858a815181106110e7576110e661467a565b5b60200260200101819052506004600083815260200190815260200160002060040154848a8151811061111c5761111b61467a565b5b602002602001018181525050600460008381526020019081526020016000206005018054611149906146d8565b80601f0160208091040260200160405190810160405280929190818152602001828054611175906146d8565b80156111c25780601f10611197576101008083540402835291602001916111c2565b820191906000526020600020905b8154815290600101906020018083116111a557829003601f168201915b5050505050838a815181106111da576111d961467a565b5b602002602001018190525088806111f090614739565b9950505b80806111ff90614739565b915050610db5565b50808061121390614739565b915050610da8565b508585858585859d509d509d509d509d509d50505050505050505091939550919395565b600a82805160208101820180518482526020830160208501208183528095505050505050818154811061127157600080fd5b9060005260206000200160009150915050805461128d906146d8565b80601f01602080910402602001604051908101604052809291908181526020018280546112b9906146d8565b80156113065780601f106112db57610100808354040283529160200191611306565b820191906000526020600020905b8154815290600101906020018083116112e957829003601f168201915b505050505081565b606080606080606080600060015467ffffffffffffffff81111561133557611334613e3b565b5b6040519080825280602002602001820160405280156113635781602001602082028036833780820191505090505b509050600060015467ffffffffffffffff81111561138457611383613e3b565b5b6040519080825280602002602001820160405280156113b757816020015b60608152602001906001900390816113a25790505b509050600060015467ffffffffffffffff8111156113d8576113d7613e3b565b5b60405190808252806020026020018201604052801561140b57816020015b60608152602001906001900390816113f65790505b509050600060015467ffffffffffffffff81111561142c5761142b613e3b565b5b60405190808252806020026020018201604052801561145f57816020015b606081526020019060019003908161144a5790505b509050600060015467ffffffffffffffff8111156114805761147f613e3b565b5b6040519080825280602002602001820160405280156114ae5781602001602082028036833780820191505090505b509050600060015467ffffffffffffffff8111156114cf576114ce613e3b565b5b60405190808252806020026020018201604052801561150257816020015b60608152602001906001900390816114ed5790505b50905060005b60015481101561188557600460008281526020019081526020016000206000015487828151811061153c5761153b61467a565b5b602002602001018181525050600460008281526020019081526020016000206001018054611569906146d8565b80601f0160208091040260200160405190810160405280929190818152602001828054611595906146d8565b80156115e25780601f106115b7576101008083540402835291602001916115e2565b820191906000526020600020905b8154815290600101906020018083116115c557829003601f168201915b50505050508682815181106115fa576115f961467a565b5b6020026020010181905250600460008281526020019081526020016000206002018054611626906146d8565b80601f0160208091040260200160405190810160405280929190818152602001828054611652906146d8565b801561169f5780601f106116745761010080835404028352916020019161169f565b820191906000526020600020905b81548152906001019060200180831161168257829003601f168201915b50505050508582815181106116b7576116b661467a565b5b60200260200101819052506004600082815260200190815260200160002060030180546116e3906146d8565b80601f016020809104026020016040519081016040528092919081815260200182805461170f906146d8565b801561175c5780601f106117315761010080835404028352916020019161175c565b820191906000526020600020905b81548152906001019060200180831161173f57829003601f168201915b50505050508482815181106117745761177361467a565b5b602002602001018190525060046000828152602001908152602001600020600401548382815181106117a9576117a861467a565b5b6020026020010181815250506004600082815260200190815260200160002060050180546117d6906146d8565b80601f0160208091040260200160405190810160405280929190818152602001828054611802906146d8565b801561184f5780601f106118245761010080835404028352916020019161184f565b820191906000526020600020905b81548152906001019060200180831161183257829003601f168201915b50505050508282815181106118675761186661467a565b5b6020026020010181905250808061187d90614739565b915050611508565b508585858585859b509b509b509b509b509b50505050505050909192939495565b6118ae612ee3565b73ffffffffffffffffffffffffffffffffffffffff163373ffffffffffffffffffffffffffffffffffffffff161461191b576040517f08c379a000000000000000000000000000000000000000000000000000000000815260040161191290614821565b60405180910390fd5b6040518060e0016040528060005481526020018781526020018681526020018581526020018481526020018373ffffffffffffffffffffffffffffffffffffffff1681526020018273ffffffffffffffffffffffffffffffffffffffff1681525060036000805481526020019081526020016000206000820151816000015560208201518160010190805190602001906119b69291906139c7565b5060408201518160020190805190602001906119d39291906139c7565b5060608201518160030190805190602001906119f09291906139c7565b506080820151816004015560a08201518160050160006101000a81548173ffffffffffffffffffffffffffffffffffffffff021916908373ffffffffffffffffffffffffffffffffffffffff16021790555060c08201518160060160006101000a81548173ffffffffffffffffffffffffffffffffffffffff021916908373ffffffffffffffffffffffffffffffffffffffff160217905550905050600080815480929190611a9e90614739565b9190505550600b87604051611ab391906147be565b908152602001604051809103902084908060018154018082558091505060019003906000526020600020016000909190919091509080519060200190611afa9291906139c7565b5050505050505050565b611b0c612ee3565b73ffffffffffffffffffffffffffffffffffffffff163373ffffffffffffffffffffffffffffffffffffffff1614611b79576040517f08c379a0000000000000000000000000000000000000000000000000000000008152600401611b7090614821565b60405180910390fd5b6000600584604051611b8b91906147be565b9081526020016040518091039020541115611bdb576040517f08c379a0000000000000000000000000000000000000000000000000000000008152600401611bd29061488d565b60405180910390fd5b6040518060c0016040528060015481526020018481526020018581526020018381526020018281526020016040518060400160405280600981526020017f417661696c61626c650000000000000000000000000000000000000000000000815250815250600460006001548152602001908152602001600020600082015181600001556020820151816001019080519060200190611c7a9291906139c7565b506040820151816002019080519060200190611c979291906139c7565b506060820151816003019080519060200190611cb49291906139c7565b506080820151816004015560a0820151816005019080519060200190611cdb9291906139c7565b50905050600154600584604051611cf291906147be565b90815260200160405180910390208190555060016000815480929190611d1790614739565b919050555084600684604051611d2d91906147be565b90815260200160405180910390209080519060200190611d4e9291906139c7565b505050505050565b60608060608060608060606000600b89604051611d7391906147be565b9081526020016040518091039020805480602002602001604051908101604052809291908181526020016000905b82821015611e4d578382906000526020600020018054611dc0906146d8565b80601f0160208091040260200160405190810160405280929190818152602001828054611dec906146d8565b8015611e395780601f10611e0e57610100808354040283529160200191611e39565b820191906000526020600020905b815481529060010190602001808311611e1c57829003601f168201915b505050505081526020019060010190611da1565b505050509050600080805467ffffffffffffffff811115611e7157611e70613e3b565b5b604051908082528060200260200182016040528015611e9f5781602001602082028036833780820191505090505b5090506000805467ffffffffffffffff811115611ebf57611ebe613e3b565b5b604051908082528060200260200182016040528015611ef257816020015b6060815260200190600190039081611edd5790505b5090506000805467ffffffffffffffff811115611f1257611f11613e3b565b5b604051908082528060200260200182016040528015611f4557816020015b6060815260200190600190039081611f305790505b5090506000805467ffffffffffffffff811115611f6557611f64613e3b565b5b604051908082528060200260200182016040528015611f9857816020015b6060815260200190600190039081611f835790505b5090506000805467ffffffffffffffff811115611fb857611fb7613e3b565b5b604051908082528060200260200182016040528015611fe65781602001602082028036833780820191505090505b5090506000805467ffffffffffffffff81111561200657612005613e3b565b5b6040519080825280602002602001820160405280156120345781602001602082028036833780820191505090505b5090506000805467ffffffffffffffff81111561205457612053613e3b565b5b6040519080825280602002602001820160405280156120825781602001602082028036833780820191505090505b50905060005b60005481101561254a5760005b8a51811015612536576121606003600084815260200190815260200160002060030180546120c2906146d8565b80601f01602080910402602001604051908101604052809291908181526020018280546120ee906146d8565b801561213b5780601f106121105761010080835404028352916020019161213b565b820191906000526020600020905b81548152906001019060200180831161211e57829003601f168201915b50505050508c83815181106121535761215261467a565b5b602002602001015161398b565b15612523576003600083815260200190815260200160002060000154898b8151811061218f5761218e61467a565b5b6020026020010181815250506003600083815260200190815260200160002060010180546121bc906146d8565b80601f01602080910402602001604051908101604052809291908181526020018280546121e8906146d8565b80156122355780601f1061220a57610100808354040283529160200191612235565b820191906000526020600020905b81548152906001019060200180831161221857829003601f168201915b5050505050888b8151811061224d5761224c61467a565b5b6020026020010181905250600360008381526020019081526020016000206002018054612279906146d8565b80601f01602080910402602001604051908101604052809291908181526020018280546122a5906146d8565b80156122f25780601f106122c7576101008083540402835291602001916122f2565b820191906000526020600020905b8154815290600101906020018083116122d557829003601f168201915b5050505050878b8151811061230a5761230961467a565b5b6020026020010181905250600360008381526020019081526020016000206003018054612336906146d8565b80601f0160208091040260200160405190810160405280929190818152602001828054612362906146d8565b80156123af5780601f10612384576101008083540402835291602001916123af565b820191906000526020600020905b81548152906001019060200180831161239257829003601f168201915b5050505050868b815181106123c7576123c661467a565b5b60200260200101819052506003600083815260200190815260200160002060040154858b815181106123fc576123fb61467a565b5b6020026020010181815250506003600083815260200190815260200160002060050160009054906101000a900473ffffffffffffffffffffffffffffffffffffffff16848b815181106124525761245161467a565b5b602002602001019073ffffffffffffffffffffffffffffffffffffffff16908173ffffffffffffffffffffffffffffffffffffffff16815250506003600083815260200190815260200160002060060160009054906101000a900473ffffffffffffffffffffffffffffffffffffffff16838b815181106124d6576124d561467a565b5b602002602001019073ffffffffffffffffffffffffffffffffffffffff16908173ffffffffffffffffffffffffffffffffffffffff1681525050898061251b90614739565b9a5050612536565b808061252e90614739565b915050612095565b50808061254290614739565b915050612088565b50868686868686869f509f509f509f509f509f509f50505050505050505050919395979092949650565b600b8280516020810182018051848252602083016020850120818352809550505050505081815481106125a657600080fd5b906000526020600020016000915091505080546125c2906146d8565b80601f01602080910402602001604051908101604052809291908181526020018280546125ee906146d8565b801561263b5780601f106126105761010080835404028352916020019161263b565b820191906000526020600020905b81548152906001019060200180831161261e57829003601f168201915b505050505081565b60006126f560088460405161265891906147be565b90815260200160405180910390208054612671906146d8565b80601f016020809104026020016040519081016040528092919081815260200182805461269d906146d8565b80156126ea5780601f106126bf576101008083540402835291602001916126ea565b820191906000526020600020905b8154815290600101906020018083116126cd57829003601f168201915b50505050508361398b565b612734576040517f08c379a000000000000000000000000000000000000000000000000000000000815260040161272b9061491f565b60405180910390fd5b6127e460088460405161274791906147be565b90815260200160405180910390208054612760906146d8565b80601f016020809104026020016040519081016040528092919081815260200182805461278c906146d8565b80156127d95780601f106127ae576101008083540402835291602001916127d9565b820191906000526020600020905b8154815290600101906020018083116127bc57829003601f168201915b50505050508361398b565b1561282b577f6b6d357d3f0e16836509854c940203c30bf52001beef13990239022bcd7699bd838360405161281a92919061498b565b60405180910390a160019050612830565b600090505b92915050565b6005818051602081018201805184825260208301602085012081835280955050505050506000915090505481565b6006818051602081018201805184825260208301602085012081835280955050505050506000915090508054612899906146d8565b80601f01602080910402602001604051908101604052809291908181526020018280546128c5906146d8565b80156129125780601f106128e757610100808354040283529160200191612912565b820191906000526020600020905b8154815290600101906020018083116128f557829003601f168201915b505050505081565b600982805160208101820180518482526020830160208501208183528095505050505050818154811061294c57600080fd5b90600052602060002001600091509150508054612968906146d8565b80601f0160208091040260200160405190810160405280929190818152602001828054612994906146d8565b80156129e15780601f106129b6576101008083540402835291602001916129e1565b820191906000526020600020905b8154815290600101906020018083116129c457829003601f168201915b505050505081565b60608060606000600a85604051612a0091906147be565b9081526020016040518091039020805480602002602001604051908101604052809291908181526020016000905b82821015612ada578382906000526020600020018054612a4d906146d8565b80601f0160208091040260200160405190810160405280929190818152602001828054612a79906146d8565b8015612ac65780601f10612a9b57610100808354040283529160200191612ac6565b820191906000526020600020905b815481529060010190602001808311612aa957829003601f168201915b505050505081526020019060010190612a2e565b5050505090506000815167ffffffffffffffff811115612afd57612afc613e3b565b5b604051908082528060200260200182016040528015612b3057816020015b6060815260200190600190039081612b1b5790505b5090506000825167ffffffffffffffff811115612b5057612b4f613e3b565b5b604051908082528060200260200182016040528015612b8357816020015b6060815260200190600190039081612b6e5790505b50905060005b8351811015612d63576007848281518110612ba757612ba661467a565b5b6020026020010151604051612bbc91906147be565b90815260200160405180910390208054612bd5906146d8565b80601f0160208091040260200160405190810160405280929190818152602001828054612c01906146d8565b8015612c4e5780601f10612c2357610100808354040283529160200191612c4e565b820191906000526020600020905b815481529060010190602001808311612c3157829003601f168201915b5050505050838281518110612c6657612c6561467a565b5b60200260200101819052506006848281518110612c8657612c8561467a565b5b6020026020010151604051612c9b91906147be565b90815260200160405180910390208054612cb4906146d8565b80601f0160208091040260200160405190810160405280929190818152602001828054612ce0906146d8565b8015612d2d5780601f10612d0257610100808354040283529160200191612d2d565b820191906000526020600020905b815481529060010190602001808311612d1057829003601f168201915b5050505050828281518110612d4557612d4461467a565b5b60200260200101819052508080612d5b90614739565b915050612b89565b508282829550955095505050509193909250565b6007818051602081018201805184825260208301602085012081835280955050505050506000915090508054612dac906146d8565b80601f0160208091040260200160405190810160405280929190818152602001828054612dd8906146d8565b8015612e255780601f10612dfa57610100808354040283529160200191612e25565b820191906000526020600020905b815481529060010190602001808311612e0857829003601f168201915b505050505081565b6008818051602081018201805184825260208301602085012081835280955050505050506000915090508054612e62906146d8565b80601f0160208091040260200160405190810160405280929190818152602001828054612e8e906146d8565b8015612edb5780601f10612eb057610100808354040283529160200191612edb565b820191906000526020600020905b815481529060010190602001808311612ebe57829003601f168201915b505050505081565b6000600260009054906101000a900473ffffffffffffffffffffffffffffffffffffffff16905090565b6004602052806000526040600020600091509050806000015490806001018054612f36906146d8565b80601f0160208091040260200160405190810160405280929190818152602001828054612f62906146d8565b8015612faf5780601f10612f8457610100808354040283529160200191612faf565b820191906000526020600020905b815481529060010190602001808311612f9257829003601f168201915b505050505090806002018054612fc4906146d8565b80601f0160208091040260200160405190810160405280929190818152602001828054612ff0906146d8565b801561303d5780601f106130125761010080835404028352916020019161303d565b820191906000526020600020905b81548152906001019060200180831161302057829003601f168201915b505050505090806003018054613052906146d8565b80601f016020809104026020016040519081016040528092919081815260200182805461307e906146d8565b80156130cb5780601f106130a0576101008083540402835291602001916130cb565b820191906000526020600020905b8154815290600101906020018083116130ae57829003601f168201915b5050505050908060040154908060050180546130e6906146d8565b80601f0160208091040260200160405190810160405280929190818152602001828054613112906146d8565b801561315f5780601f106131345761010080835404028352916020019161315f565b820191906000526020600020905b81548152906001019060200180831161314257829003601f168201915b5050505050905086565b606060008060008060008093505b600054841015613249576132296003600086815260200190815260200160002060030180546131a5906146d8565b80601f01602080910402602001604051908101604052809291908181526020018280546131d1906146d8565b801561321e5780601f106131f35761010080835404028352916020019161321e565b820191906000526020600020905b81548152906001019060200180831161320157829003601f168201915b50505050508861398b565b1561323657839150600190505b838061324190614739565b945050613177565b6001151581151514613290576040517f08c379a000000000000000000000000000000000000000000000000000000000815260040161328790614a47565b60405180910390fd5b3373ffffffffffffffffffffffffffffffffffffffff166003600084815260200190815260200160002060060160009054906101000a900473ffffffffffffffffffffffffffffffffffffffff1673ffffffffffffffffffffffffffffffffffffffff1614613334576040517f08c379a000000000000000000000000000000000000000000000000000000000815260040161332b90614ab3565b60405180910390fd5b6000600154111561341357600094505b600154851015613412576133f6600460008781526020019081526020016000206001018054613372906146d8565b80601f016020809104026020016040519081016040528092919081815260200182805461339e906146d8565b80156133eb5780601f106133c0576101008083540402835291602001916133eb565b820191906000526020600020905b8154815290600101906020018083116133ce57829003601f168201915b50505050508a61398b565b156133ff578492505b848061340a90614739565b955050613344565b5b600460008481526020019081526020016000206005018054613434906146d8565b80601f0160208091040260200160405190810160405280929190818152602001828054613460906146d8565b80156134ad5780601f10613482576101008083540402835291602001916134ad565b820191906000526020600020905b81548152906001019060200180831161349057829003601f168201915b505050505095506134f3866040518060400160405280600981526020017f417661696c61626c65000000000000000000000000000000000000000000000081525061398b565b613532576040517f08c379a000000000000000000000000000000000000000000000000000000000815260040161352990614b45565b60405180910390fd5b613571866040518060400160405280600981526020017f417661696c61626c65000000000000000000000000000000000000000000000081525061398b565b15613662576040518060400160405280600281526020017f4e410000000000000000000000000000000000000000000000000000000000008152506004600085815260200190815260200160002060050190805190602001906135d59291906139c7565b50600a886040516135e691906147be565b90815260200160405180910390208990806001815401808255809150506001900390600052602060002001600090919091909150908051906020019061362d9291906139c7565b508760088a60405161363f91906147be565b908152602001604051809103902090805190602001906136609291906139c7565b505b505050505050505050565b6003602052806000526040600020600091509050806000015490806001018054613696906146d8565b80601f01602080910402602001604051908101604052809291908181526020018280546136c2906146d8565b801561370f5780601f106136e45761010080835404028352916020019161370f565b820191906000526020600020905b8154815290600101906020018083116136f257829003601f168201915b505050505090806002018054613724906146d8565b80601f0160208091040260200160405190810160405280929190818152602001828054613750906146d8565b801561379d5780601f106137725761010080835404028352916020019161379d565b820191906000526020600020905b81548152906001019060200180831161378057829003601f168201915b5050505050908060030180546137b2906146d8565b80601f01602080910402602001604051908101604052809291908181526020018280546137de906146d8565b801561382b5780601f106138005761010080835404028352916020019161382b565b820191906000526020600020905b81548152906001019060200180831161380e57829003601f168201915b5050505050908060040154908060050160009054906101000a900473ffffffffffffffffffffffffffffffffffffffff16908060060160009054906101000a900473ffffffffffffffffffffffffffffffffffffffff16905087565b61388f612ee3565b73ffffffffffffffffffffffffffffffffffffffff163373ffffffffffffffffffffffffffffffffffffffff16146138fc576040517f08c379a00000000000000000000000000000000000000000000000000000000081526004016138f390614821565b60405180910390fd5b60098160405161390c91906147be565b9081526020016040518091039020829080600181540180825580915050600190039060005260206000200160009091909190915090805190602001906139539291906139c7565b508060078360405161396591906147be565b908152602001604051809103902090805190602001906139869291906139c7565b505050565b6000613997838361399f565b905092915050565b6000815183511480156139bf575081805190602001208380519060200120145b905092915050565b8280546139d3906146d8565b90600052602060002090601f0160209004810192826139f55760008555613a3c565b82601f10613a0e57805160ff1916838001178555613a3c565b82800160010185558215613a3c579182015b82811115613a3b578251825591602001919060010190613a20565b5b509050613a499190613a4d565b5090565b5b80821115613a66576000816000905550600101613a4e565b5090565b600081519050919050565b600082825260208201905092915050565b6000819050602082019050919050565b6000819050919050565b613aa981613a96565b82525050565b6000613abb8383613aa0565b60208301905092915050565b6000602082019050919050565b6000613adf82613a6a565b613ae98185613a75565b9350613af483613a86565b8060005b83811015613b25578151613b0c8882613aaf565b9750613b1783613ac7565b925050600181019050613af8565b5085935050505092915050565b600081519050919050565b600082825260208201905092915050565b6000819050602082019050919050565b600081519050919050565b600082825260208201905092915050565b60005b83811015613b98578082015181840152602081019050613b7d565b83811115613ba7576000848401525b50505050565b6000601f19601f8301169050919050565b6000613bc982613b5e565b613bd38185613b69565b9350613be3818560208601613b7a565b613bec81613bad565b840191505092915050565b6000613c038383613bbe565b905092915050565b6000602082019050919050565b6000613c2382613b32565b613c2d8185613b3d565b935083602082028501613c3f85613b4e565b8060005b85811015613c7b5784840389528151613c5c8582613bf7565b9450613c6783613c0b565b925060208a01995050600181019050613c43565b50829750879550505050505092915050565b600081519050919050565b600082825260208201905092915050565b6000819050602082019050919050565b600073ffffffffffffffffffffffffffffffffffffffff82169050919050565b6000613ce482613cb9565b9050919050565b613cf481613cd9565b82525050565b6000613d068383613ceb565b60208301905092915050565b6000602082019050919050565b6000613d2a82613c8d565b613d348185613c98565b9350613d3f83613ca9565b8060005b83811015613d70578151613d578882613cfa565b9750613d6283613d12565b925050600181019050613d43565b5085935050505092915050565b600060e0820190508181036000830152613d97818a613ad4565b90508181036020830152613dab8189613c18565b90508181036040830152613dbf8188613c18565b90508181036060830152613dd38187613c18565b90508181036080830152613de78186613ad4565b905081810360a0830152613dfb8185613d1f565b905081810360c0830152613e0f8184613d1f565b905098975050505050505050565b6000604051905090565b600080fd5b600080fd5b600080fd5b600080fd5b7f4e487b7100000000000000000000000000000000000000000000000000000000600052604160045260246000fd5b613e7382613bad565b810181811067ffffffffffffffff82111715613e9257613e91613e3b565b5b80604052505050565b6000613ea5613e1d565b9050613eb18282613e6a565b919050565b600067ffffffffffffffff821115613ed157613ed0613e3b565b5b613eda82613bad565b9050602081019050919050565b82818337600083830152505050565b6000613f09613f0484613eb6565b613e9b565b905082815260208101848484011115613f2557613f24613e36565b5b613f30848285613ee7565b509392505050565b600082601f830112613f4d57613f4c613e31565b5b8135613f5d848260208601613ef6565b91505092915050565b600060208284031215613f7c57613f7b613e27565b5b600082013567ffffffffffffffff811115613f9a57613f99613e2c565b5b613fa684828501613f38565b91505092915050565b600060c0820190508181036000830152613fc98189613ad4565b90508181036020830152613fdd8188613c18565b90508181036040830152613ff18187613c18565b905081810360608301526140058186613c18565b905081810360808301526140198185613ad4565b905081810360a083015261402d8184613c18565b9050979650505050505050565b61404381613a96565b811461404e57600080fd5b50565b6000813590506140608161403a565b92915050565b6000806040838503121561407d5761407c613e27565b5b600083013567ffffffffffffffff81111561409b5761409a613e2c565b5b6140a785828601613f38565b92505060206140b885828601614051565b9150509250929050565b600082825260208201905092915050565b60006140de82613b5e565b6140e881856140c2565b93506140f8818560208601613b7a565b61410181613bad565b840191505092915050565b6000602082019050818103600083015261412681846140d3565b905092915050565b61413781613cd9565b811461414257600080fd5b50565b6000813590506141548161412e565b92915050565b600080600080600080600060e0888a03121561417957614178613e27565b5b600088013567ffffffffffffffff81111561419757614196613e2c565b5b6141a38a828b01613f38565b975050602088013567ffffffffffffffff8111156141c4576141c3613e2c565b5b6141d08a828b01613f38565b965050604088013567ffffffffffffffff8111156141f1576141f0613e2c565b5b6141fd8a828b01613f38565b955050606088013567ffffffffffffffff81111561421e5761421d613e2c565b5b61422a8a828b01613f38565b945050608061423b8a828b01614051565b93505060a061424c8a828b01614145565b92505060c061425d8a828b01614145565b91505092959891949750929550565b600080600080600060a0868803121561428857614287613e27565b5b600086013567ffffffffffffffff8111156142a6576142a5613e2c565b5b6142b288828901613f38565b955050602086013567ffffffffffffffff8111156142d3576142d2613e2c565b5b6142df88828901613f38565b945050604086013567ffffffffffffffff811115614300576142ff613e2c565b5b61430c88828901613f38565b935050606086013567ffffffffffffffff81111561432d5761432c613e2c565b5b61433988828901613f38565b925050608061434a88828901614051565b9150509295509295909350565b6000806040838503121561436e5761436d613e27565b5b600083013567ffffffffffffffff81111561438c5761438b613e2c565b5b61439885828601613f38565b925050602083013567ffffffffffffffff8111156143b9576143b8613e2c565b5b6143c585828601613f38565b9150509250929050565b60008115159050919050565b6143e4816143cf565b82525050565b60006020820190506143ff60008301846143db565b92915050565b61440e81613a96565b82525050565b60006020820190506144296000830184614405565b92915050565b600060608201905081810360008301526144498186613c18565b9050818103602083015261445d8185613c18565b905081810360408301526144718184613c18565b9050949350505050565b61448481613cd9565b82525050565b600060208201905061449f600083018461447b565b92915050565b6000602082840312156144bb576144ba613e27565b5b60006144c984828501614051565b91505092915050565b600060c0820190506144e76000830189614405565b81810360208301526144f981886140d3565b9050818103604083015261450d81876140d3565b9050818103606083015261452181866140d3565b90506145306080830185614405565b81810360a083015261454281846140d3565b9050979650505050505050565b60008060006060848603121561456857614567613e27565b5b600084013567ffffffffffffffff81111561458657614585613e2c565b5b61459286828701613f38565b935050602084013567ffffffffffffffff8111156145b3576145b2613e2c565b5b6145bf86828701613f38565b925050604084013567ffffffffffffffff8111156145e0576145df613e2c565b5b6145ec86828701613f38565b9150509250925092565b600060e08201905061460b600083018a614405565b818103602083015261461d81896140d3565b9050818103604083015261463181886140d3565b9050818103606083015261464581876140d3565b90506146546080830186614405565b61466160a083018561447b565b61466e60c083018461447b565b98975050505050505050565b7f4e487b7100000000000000000000000000000000000000000000000000000000600052603260045260246000fd5b7f4e487b7100000000000000000000000000000000000000000000000000000000600052602260045260246000fd5b600060028204905060018216806146f057607f821691505b60208210811415614704576147036146a9565b5b50919050565b7f4e487b7100000000000000000000000000000000000000000000000000000000600052601160045260246000fd5b600061474482613a96565b91507fffffffffffffffffffffffffffffffffffffffffffffffffffffffffffffffff8214156147775761477661470a565b5b600182019050919050565b600081905092915050565b600061479882613b5e565b6147a28185614782565b93506147b2818560208601613b7a565b80840191505092915050565b60006147ca828461478d565b915081905092915050565b7f57726f6e67204163636f756e742073656c656374656400000000000000000000600082015250565b600061480b6016836140c2565b9150614816826147d5565b602082019050919050565b6000602082019050818103600083015261483a816147fe565b9050919050565b7f53657269616c206e756d62657220616c72656164792065786973747300000000600082015250565b6000614877601c836140c2565b915061488282614841565b602082019050919050565b600060208201905081810360008301526148a68161486a565b9050919050565b7f496e76616c69642053657269616c204e756d626572204f7220436f6e73756d6560008201527f7220436f64650000000000000000000000000000000000000000000000000000602082015250565b60006149096026836140c2565b9150614914826148ad565b604082019050919050565b60006020820190508181036000830152614938816148fc565b9050919050565b7f6973205665726966696564206279200000000000000000000000000000000000600082015250565b6000614975600f836140c2565b91506149808261493f565b602082019050919050565b600060608201905081810360008301526149a581856140d3565b905081810360208301526149b881614968565b905081810360408301526149cc81846140d3565b90509392505050565b7f53656c6c657220646f6573206e6f7420657869737420696e207468652065636f60008201527f73797374656d0000000000000000000000000000000000000000000000000000602082015250565b6000614a316026836140c2565b9150614a3c826149d5565b604082019050919050565b60006020820190508181036000830152614a6081614a24565b9050919050565b7f57726f6e67204163636f756e742053656c656374656400000000000000000000600082015250565b6000614a9d6016836140c2565b9150614aa882614a67565b602082019050919050565b60006020820190508181036000830152614acc81614a90565b9050919050565b7f50726f647563742069732063757272656e746c79204f7574206f662053746f6360008201527f6b00000000000000000000000000000000000000000000000000000000000000602082015250565b6000614b2f6021836140c2565b9150614b3a82614ad3565b604082019050919050565b60006020820190508181036000830152614b5e81614b22565b905091905056fea264697066735822122075eb1a2dcac44394c68c7e88ebf6f270de644a4d1ad754a703ced49e551b0e5c64736f6c634300080c0033",
  "immutableReferences": {},
  "source": "// SPDX-License-Identifier: GPL-3.0\r\npragma solidity ^0.8.12;\r\n\r\ncontract product2 {\r\n    uint256 sellerCount;\r\n    uint256 productCount;\r\n    address owner;\r\n\r\n    constructor(){\r\n        owner = msg.sender;\r\n    }\r\n\r\n    struct seller {\r\n        uint256 sellerId; // automated\r\n        string sellerName;\r\n        string sellerBrand;\r\n        string sellerCode; // Password (GST(5)+Phone(4))\r\n        uint256 sellerNum;\r\n        address sellerManager;\r\n        address sellerAddress;\r\n    }\r\n    mapping(uint256 => seller) public sellers; // 0 -> sellers details\r\n\r\n    struct productItem {\r\n        uint256 productId; //Automated\r\n        string productSN; \r\n        string productName;\r\n        string productBrand;\r\n        uint256 productPrice;\r\n        string productStatus;\r\n    }\r\n\r\n    mapping(uint256 => productItem) public productItems; //product id  -> details\r\n    mapping(string => uint256) public productMap; //productSno -> count(id)(Automated)\r\n    mapping(string => string) public productsManufactured; //product Sn -> mfr\r\n    mapping(string => string) public productsForSale; //productSn -> Seller Code\r\n    mapping(string => string) public productsSold; //productSn-> Consumer Code\r\n    mapping(string => string[]) public productsWithSeller; //sellerCode -> ProductSno\r\n    mapping(string => string[]) public productsWithConsumer; //ConsumerCode -> ProductSn\r\n    mapping(string => string[]) public sellersWithManufacturer; //Mfr id -> seller code\r\n    \r\n    function viewOwner() public view returns(address){\r\n        return owner;\r\n    }\r\n\r\n    // String Custom Comparator\r\n    function memcmp(\r\n        bytes memory a,\r\n        bytes memory b\r\n    ) internal pure returns (bool) {\r\n        return (a.length == b.length) && (keccak256(a) == keccak256(b));\r\n    }\r\n\r\n    function strcmp(\r\n        string memory a,\r\n        string memory b\r\n    ) internal pure returns (bool) {\r\n        return memcmp(bytes(a), bytes(b));\r\n    }\r\n\r\n    //SELLER SECTION\r\n\r\n    function addSeller(\r\n        string memory _manufacturerId,\r\n        string memory _sellerName,\r\n        string memory _sellerBrand,\r\n        string memory _sellerCode,\r\n        uint256 _sellerNum,\r\n        address _sellerManager,\r\n        address _sellerAddress\r\n    ) public {\r\n        require(msg.sender == viewOwner(), \"Wrong Account selected\");\r\n        sellers[sellerCount] = seller(\r\n            sellerCount,\r\n            _sellerName,\r\n            _sellerBrand,\r\n            _sellerCode,\r\n            _sellerNum,\r\n            _sellerManager,\r\n            _sellerAddress\r\n        );\r\n        sellerCount++;\r\n        sellersWithManufacturer[_manufacturerId].push(_sellerCode);\r\n    }\r\n\r\n    function viewSellers()\r\n        public\r\n        view\r\n        returns (\r\n            uint256[] memory,\r\n            string[] memory,\r\n            string[] memory,\r\n            string[] memory,\r\n            uint256[] memory,\r\n            address[] memory,\r\n            address[] memory\r\n        )\r\n    {\r\n        uint256[] memory ids = new uint256[](sellerCount);\r\n        string[] memory snames = new string[](sellerCount);\r\n        string[] memory sbrands = new string[](sellerCount);\r\n        string[] memory scodes = new string[](sellerCount);\r\n        uint256[] memory snums = new uint256[](sellerCount);\r\n        address[] memory smanagers = new address[](sellerCount);\r\n        address[] memory saddress = new address[](sellerCount);\r\n\r\n        for (uint256 i = 0; i < sellerCount; i++) {\r\n            ids[i] = sellers[i].sellerId;\r\n            snames[i] = sellers[i].sellerName;\r\n            sbrands[i] = sellers[i].sellerBrand;\r\n            scodes[i] = sellers[i].sellerCode;\r\n            snums[i] = sellers[i].sellerNum;\r\n            smanagers[i] = sellers[i].sellerManager;\r\n            saddress[i] = sellers[i].sellerAddress;\r\n        }\r\n        return (ids, snames, sbrands, scodes, snums, smanagers, saddress);\r\n    }\r\n\r\n    //PRODUCT SECTION\r\n\r\n    function addProduct(\r\n        string memory _manufactuerID,\r\n        string memory _productName,\r\n        string memory _productSN,\r\n        string memory _productBrand,\r\n        uint256 _productPrice\r\n    ) public {\r\n        require(msg.sender == viewOwner(), \"Wrong Account selected\");\r\n        require(productMap[_productSN] <= 0, \"Serial number already exists\");\r\n        productItems[productCount] = productItem(\r\n            productCount,\r\n            _productSN,\r\n            _productName,\r\n            _productBrand,\r\n            _productPrice,\r\n            \"Available\"\r\n        );\r\n        productMap[_productSN] = productCount;\r\n        productCount++;\r\n        productsManufactured[_productSN] = _manufactuerID;\r\n    }\r\n\r\n    function viewProductItems()\r\n        public\r\n        view\r\n        returns (\r\n            uint256[] memory,\r\n            string[] memory,\r\n            string[] memory,\r\n            string[] memory,\r\n            uint256[] memory,\r\n            string[] memory\r\n        )\r\n    {\r\n        uint256[] memory pids = new uint256[](productCount);\r\n        string[] memory pSNs = new string[](productCount);\r\n        string[] memory pnames = new string[](productCount);\r\n        string[] memory pbrands = new string[](productCount);\r\n        uint256[] memory pprices = new uint256[](productCount);\r\n        string[] memory pstatus = new string[](productCount);\r\n\r\n        for (uint256 i = 0; i < productCount; i++) {\r\n            pids[i] = productItems[i].productId;\r\n            pSNs[i] = productItems[i].productSN;\r\n            pnames[i] = productItems[i].productName;\r\n            pbrands[i] = productItems[i].productBrand;\r\n            pprices[i] = productItems[i].productPrice;\r\n            pstatus[i] = productItems[i].productStatus;\r\n        }\r\n        return (pids, pSNs, pnames, pbrands, pprices, pstatus);\r\n    }\r\n\r\n    //SELL Product\r\n\r\n    function manufacturerSellProduct(\r\n        string memory _productSN,\r\n        string memory _sellerCode\r\n    ) public {\r\n        require(msg.sender == viewOwner(), \"Wrong Account selected\");\r\n        productsWithSeller[_sellerCode].push(_productSN);\r\n        productsForSale[_productSN] = _sellerCode;\r\n    }\r\n\r\n    function sellerSellProduct(\r\n        string memory _productSN,\r\n        string memory _consumerCode,\r\n        string memory _sellerCode\r\n    ) public {\r\n        string memory pStatus;\r\n        uint256 i;\r\n        uint256 a;\r\n        uint256 j = 0;\r\n        uint256 b = 0;\r\n        bool sellerFound = false;\r\n        for (a = 0; a < sellerCount; a++) {\r\n            if (strcmp(sellers[a].sellerCode, _sellerCode)) {\r\n                b = a;\r\n                sellerFound = true;\r\n            }\r\n        }\r\n        require(sellerFound == true, \"Seller does not exist in the ecosystem\");\r\n        require(sellers[b].sellerAddress == msg.sender, \"Wrong Account Selected\");\r\n\r\n        if (productCount > 0) {\r\n            for (i = 0; i < productCount; i++) {\r\n                if (strcmp(productItems[i].productSN, _productSN)) {\r\n                    j = i;\r\n                }\r\n            }\r\n        }\r\n\r\n        pStatus = productItems[j].productStatus;\r\n        require(\r\n            strcmp(pStatus, \"Available\"),\r\n            \"Product is currently Out of Stock\"\r\n        );\r\n        if (strcmp(pStatus, \"Available\")) {\r\n            productItems[j].productStatus = \"NA\";\r\n            productsWithConsumer[_consumerCode].push(_productSN);\r\n            productsSold[_productSN] = _consumerCode;\r\n        }\r\n    }\r\n\r\n    function queryProductsList(\r\n        string memory _sellerCode\r\n    )\r\n        public\r\n        view\r\n        returns (\r\n            uint256[] memory,\r\n            string[] memory,\r\n            string[] memory,\r\n            string[] memory,\r\n            uint256[] memory,\r\n            string[] memory\r\n        )\r\n    {\r\n        string[] memory productSNs = productsWithSeller[_sellerCode];\r\n        uint256 k = 0;\r\n\r\n        uint256[] memory pids = new uint256[](productCount);\r\n        string[] memory pSNs = new string[](productCount);\r\n        string[] memory pnames = new string[](productCount);\r\n        string[] memory pbrands = new string[](productCount);\r\n        uint256[] memory pprices = new uint256[](productCount);\r\n        string[] memory pstatus = new string[](productCount);\r\n\r\n        for (uint256 i = 0; i < productCount; i++) {\r\n            for (uint256 j = 0; j < productSNs.length; j++) {\r\n                if (strcmp(productItems[i].productSN, productSNs[j])) {\r\n                    pids[k] = productItems[i].productId;\r\n                    pSNs[k] = productItems[i].productSN;\r\n                    pnames[k] = productItems[i].productName;\r\n                    pbrands[k] = productItems[i].productBrand;\r\n                    pprices[k] = productItems[i].productPrice;\r\n                    pstatus[k] = productItems[i].productStatus;\r\n                    k++;\r\n                }\r\n            }\r\n        }\r\n        return (pids, pSNs, pnames, pbrands, pprices, pstatus);\r\n    }\r\n\r\n    function querySellersList(\r\n        string memory _manufacturerCode\r\n    )\r\n        public\r\n        view\r\n        returns (\r\n            uint256[] memory,\r\n            string[] memory,\r\n            string[] memory,\r\n            string[] memory,\r\n            uint256[] memory,\r\n            address[] memory,\r\n            address[] memory\r\n        )\r\n    {\r\n        string[] memory sellerCodes = sellersWithManufacturer[\r\n            _manufacturerCode\r\n        ];\r\n        uint256 k = 0;\r\n        uint256[] memory ids = new uint256[](sellerCount);\r\n        string[] memory snames = new string[](sellerCount);\r\n        string[] memory sbrands = new string[](sellerCount);\r\n        string[] memory scodes = new string[](sellerCount);\r\n        uint256[] memory snums = new uint256[](sellerCount);\r\n        address[] memory smanagers = new address[](sellerCount);\r\n        address[] memory saddress = new address[](sellerCount);\r\n\r\n        for (uint256 i = 0; i < sellerCount; i++) {\r\n            for (uint256 j = 0; j < sellerCodes.length; j++) {\r\n                if (strcmp(sellers[i].sellerCode, sellerCodes[j])) {\r\n                    ids[k] = sellers[i].sellerId;\r\n                    snames[k] = sellers[i].sellerName;\r\n                    sbrands[k] = sellers[i].sellerBrand;\r\n                    scodes[k] = sellers[i].sellerCode;\r\n                    snums[k] = sellers[i].sellerNum;\r\n                    smanagers[k] = sellers[i].sellerManager;\r\n                    saddress[k] = sellers[i].sellerAddress;\r\n                    k++;\r\n                    break;\r\n                }\r\n            }\r\n        }\r\n\r\n        return (ids, snames, sbrands, scodes, snums, smanagers, saddress);\r\n    }\r\n\r\n    function getPurchaseHistory(\r\n        string memory _consumerCode\r\n    ) public view returns (string[] memory, string[] memory, string[] memory) {\r\n        string[] memory productSNs = productsWithConsumer[_consumerCode];\r\n        string[] memory sellerCodes = new string[](productSNs.length);\r\n        string[] memory manufacturerCodes = new string[](productSNs.length);\r\n        for (uint256 i = 0; i < productSNs.length; i++) {\r\n            sellerCodes[i] = productsForSale[productSNs[i]];\r\n            manufacturerCodes[i] = productsManufactured[productSNs[i]];\r\n        }\r\n        return (productSNs, sellerCodes, manufacturerCodes);\r\n    }\r\n\r\n    //Verify\r\n    event printVerify(string _productSN,string message, string _consumerCode);\r\n    \r\n    function verifyProduct(\r\n        string memory _productSN,\r\n        string memory _consumerCode\r\n    ) public returns (bool) {\r\n        require(strcmp(productsSold[_productSN], _consumerCode), \"Invalid Serial Number Or Consumer Code\");\r\n        if (strcmp(productsSold[_productSN], _consumerCode)) {\r\n            emit printVerify(_productSN, \"is Verified by \", _consumerCode);\r\n            return true;\r\n        } else {\r\n            return false;\r\n        }\r\n    }\r\n}\r\n",
  "sourcePath": "D:\\College\\MAJOR II\\Major-II\\contracts\\temp1.sol",
  "compiler": {
    "name": "solc",
    "version": "0.8.12+commit.f00d7308.Emscripten.clang"
  },
  "schemaVersion": "3.4.10",
  "updatedAt": "2023-04-12T13:42:06.873Z",
  "devdoc": {
    "kind": "dev",
    "methods": {},
    "version": 1
  },
  "userdoc": {
    "kind": "user",
    "methods": {},
    "version": 1
  }
}